{
  "address": "0x5FbDB2315678afecb367f032d93F642f64180aa3",
  "abi": [
    {
      "anonymous": false,
      "inputs": [
        {
          "indexed": false,
          "internalType": "string",
          "name": "name",
          "type": "string"
        },
        {
          "indexed": false,
          "internalType": "string",
          "name": "symbol",
          "type": "string"
        },
        {
          "indexed": false,
          "internalType": "uint256",
          "name": "maxSupply",
          "type": "uint256"
        },
        {
          "indexed": false,
          "internalType": "address",
          "name": "contractAddress",
          "type": "address"
        },
        {
          "indexed": false,
          "internalType": "address",
          "name": "sender",
          "type": "address"
        }
      ],
      "name": "NftContractCreated",
      "type": "event"
    },
    {
      "inputs": [
        {
          "internalType": "string",
          "name": "_name",
          "type": "string"
        },
        {
          "internalType": "string",
          "name": "_symbol",
          "type": "string"
        },
        {
          "internalType": "uint256",
          "name": "_maxSupply",
          "type": "uint256"
        }
      ],
      "name": "createNewNftContract",
      "outputs": [
        {
          "internalType": "contract myERC721",
          "name": "",
          "type": "address"
        }
      ],
      "stateMutability": "nonpayable",
      "type": "function"
    }
  ],
  "transactionHash": "0xce8a2cefd3b18080b04a981239cc8bc10ae97dd43f25078f1584bc81fcbb6203",
  "args": [],
  "numDeployments": 1,
  "solcInputHash": "01bcf461c995110dd261f5301885d6ea",
  "bytecode": "0x608060405234801561001057600080fd5b50614356806100206000396000f3fe60806040523480156200001157600080fd5b50600436106200002e5760003560e01c80637709e7aa1462000033575b600080fd5b6200005160048036038101906200004b9190620002b8565b62000069565b604051620000609190620003dd565b60405180910390f35b600080848484336040516200007e90620000f9565b6200008d9493929190620004c3565b604051809103906000f080158015620000aa573d6000803e3d6000fd5b5090507fbf23fc03d0867b5fcb13c21b1d5f7cd09332f69b63ca0d94aea9e6c177f444558585858433604051620000e69594939291906200051e565b60405180910390a1809150509392505050565b613d97806200058a83390190565b6000604051905090565b600080fd5b600080fd5b600080fd5b600080fd5b6000601f19601f8301169050919050565b7f4e487b7100000000000000000000000000000000000000000000000000000000600052604160045260246000fd5b620001708262000125565b810181811067ffffffffffffffff8211171562000192576200019162000136565b5b80604052505050565b6000620001a762000107565b9050620001b5828262000165565b919050565b600067ffffffffffffffff821115620001d857620001d762000136565b5b620001e38262000125565b9050602081019050919050565b82818337600083830152505050565b6000620002166200021084620001ba565b6200019b565b90508281526020810184848401111562000235576200023462000120565b5b62000242848285620001f0565b509392505050565b600082601f8301126200026257620002616200011b565b5b813562000274848260208601620001ff565b91505092915050565b6000819050919050565b62000292816200027d565b81146200029e57600080fd5b50565b600081359050620002b28162000287565b92915050565b600080600060608486031215620002d457620002d362000111565b5b600084013567ffffffffffffffff811115620002f557620002f462000116565b5b62000303868287016200024a565b935050602084013567ffffffffffffffff81111562000327576200032662000116565b5b62000335868287016200024a565b92505060406200034886828701620002a1565b9150509250925092565b600073ffffffffffffffffffffffffffffffffffffffff82169050919050565b6000819050919050565b60006200039d62000397620003918462000352565b62000372565b62000352565b9050919050565b6000620003b1826200037c565b9050919050565b6000620003c582620003a4565b9050919050565b620003d781620003b8565b82525050565b6000602082019050620003f46000830184620003cc565b92915050565b600081519050919050565b600082825260208201905092915050565b60005b838110156200043657808201518184015260208101905062000419565b8381111562000446576000848401525b50505050565b60006200045982620003fa565b62000465818562000405565b93506200047781856020860162000416565b620004828162000125565b840191505092915050565b62000498816200027d565b82525050565b6000620004ab8262000352565b9050919050565b620004bd816200049e565b82525050565b60006080820190508181036000830152620004df81876200044c565b90508181036020830152620004f581866200044c565b90506200050660408301856200048d565b620005156060830184620004b2565b95945050505050565b600060a08201905081810360008301526200053a81886200044c565b905081810360208301526200055081876200044c565b90506200056160408301866200048d565b620005706060830185620004b2565b6200057f6080830184620004b2565b969550505050505056fe60a06040523480156200001157600080fd5b5060405162003d9738038062003d978339818101604052810190620000379190620005bd565b8383816000908051906020019062000051929190620002d0565b5080600190805190602001906200006a929190620002d0565b5050506200008d62000081620000b060201b60201c565b620000b860201b60201c565b8160808181525050620000a6816200017e60201b60201c565b50505050620007ed565b600033905090565b6000600b60009054906101000a900473ffffffffffffffffffffffffffffffffffffffff16905081600b60006101000a81548173ffffffffffffffffffffffffffffffffffffffff021916908373ffffffffffffffffffffffffffffffffffffffff1602179055508173ffffffffffffffffffffffffffffffffffffffff168173ffffffffffffffffffffffffffffffffffffffff167f8be0079c531659141344cd1fd0a4f28419497f9722a3daafe3b4186f6b6457e060405160405180910390a35050565b6200018e6200021560201b60201c565b600073ffffffffffffffffffffffffffffffffffffffff168173ffffffffffffffffffffffffffffffffffffffff16141562000201576040517f08c379a0000000000000000000000000000000000000000000000000000000008152600401620001f890620006f4565b60405180910390fd5b6200021281620000b860201b60201c565b50565b62000225620000b060201b60201c565b73ffffffffffffffffffffffffffffffffffffffff166200024b620002a660201b60201c565b73ffffffffffffffffffffffffffffffffffffffff1614620002a4576040517f08c379a00000000000000000000000000000000000000000000000000000000081526004016200029b9062000766565b60405180910390fd5b565b6000600b60009054906101000a900473ffffffffffffffffffffffffffffffffffffffff16905090565b828054620002de90620007b7565b90600052602060002090601f0160209004810192826200030257600085556200034e565b82601f106200031d57805160ff19168380011785556200034e565b828001600101855582156200034e579182015b828111156200034d57825182559160200191906001019062000330565b5b5090506200035d919062000361565b5090565b5b808211156200037c57600081600090555060010162000362565b5090565b6000604051905090565b600080fd5b600080fd5b600080fd5b600080fd5b6000601f19601f8301169050919050565b7f4e487b7100000000000000000000000000000000000000000000000000000000600052604160045260246000fd5b620003e9826200039e565b810181811067ffffffffffffffff821117156200040b576200040a620003af565b5b80604052505050565b60006200042062000380565b90506200042e8282620003de565b919050565b600067ffffffffffffffff821115620004515762000450620003af565b5b6200045c826200039e565b9050602081019050919050565b60005b83811015620004895780820151818401526020810190506200046c565b8381111562000499576000848401525b50505050565b6000620004b6620004b08462000433565b62000414565b905082815260208101848484011115620004d557620004d462000399565b5b620004e284828562000469565b509392505050565b600082601f83011262000502576200050162000394565b5b8151620005148482602086016200049f565b91505092915050565b6000819050919050565b62000532816200051d565b81146200053e57600080fd5b50565b600081519050620005528162000527565b92915050565b600073ffffffffffffffffffffffffffffffffffffffff82169050919050565b6000620005858262000558565b9050919050565b620005978162000578565b8114620005a357600080fd5b50565b600081519050620005b7816200058c565b92915050565b60008060008060808587031215620005da57620005d96200038a565b5b600085015167ffffffffffffffff811115620005fb57620005fa6200038f565b5b6200060987828801620004ea565b945050602085015167ffffffffffffffff8111156200062d576200062c6200038f565b5b6200063b87828801620004ea565b93505060406200064e8782880162000541565b92505060606200066187828801620005a6565b91505092959194509250565b600082825260208201905092915050565b7f4f776e61626c653a206e6577206f776e657220697320746865207a65726f206160008201527f6464726573730000000000000000000000000000000000000000000000000000602082015250565b6000620006dc6026836200066d565b9150620006e9826200067e565b604082019050919050565b600060208201905081810360008301526200070f81620006cd565b9050919050565b7f4f776e61626c653a2063616c6c6572206973206e6f7420746865206f776e6572600082015250565b60006200074e6020836200066d565b91506200075b8262000716565b602082019050919050565b6000602082019050818103600083015262000781816200073f565b9050919050565b7f4e487b7100000000000000000000000000000000000000000000000000000000600052602260045260246000fd5b60006002820490506001821680620007d057607f821691505b60208210811415620007e757620007e662000788565b5b50919050565b60805161358e620008096000396000610b9b015261358e6000f3fe60806040526004361061012a5760003560e01c80636817c76c116100ab578063a22cb4651161006f578063a22cb46514610406578063b88d4fde1461042f578063c87b56dd14610458578063d85d3d2714610495578063e985e9c5146104b1578063f2fde38b146104ee5761012a565b80636817c76c1461033157806370a082311461035c578063715018a6146103995780638da5cb5b146103b057806395d89b41146103db5761012a565b806323b872dd116100f257806323b872dd146102285780632f745c591461025157806342842e0e1461028e5780634f6ccce7146102b75780636352211e146102f45761012a565b806301ffc9a71461012f57806306fdde031461016c578063081812fc14610197578063095ea7b3146101d457806318160ddd146101fd575b600080fd5b34801561013b57600080fd5b5061015660048036038101906101519190612320565b610517565b6040516101639190612368565b60405180910390f35b34801561017857600080fd5b50610181610529565b60405161018e919061241c565b60405180910390f35b3480156101a357600080fd5b506101be60048036038101906101b99190612474565b6105bb565b6040516101cb91906124e2565b60405180910390f35b3480156101e057600080fd5b506101fb60048036038101906101f69190612529565b610601565b005b34801561020957600080fd5b50610212610719565b60405161021f9190612578565b60405180910390f35b34801561023457600080fd5b5061024f600480360381019061024a9190612593565b610726565b005b34801561025d57600080fd5b5061027860048036038101906102739190612529565b610786565b6040516102859190612578565b60405180910390f35b34801561029a57600080fd5b506102b560048036038101906102b09190612593565b61082b565b005b3480156102c357600080fd5b506102de60048036038101906102d99190612474565b61084b565b6040516102eb9190612578565b60405180910390f35b34801561030057600080fd5b5061031b60048036038101906103169190612474565b6108bc565b60405161032891906124e2565b60405180910390f35b34801561033d57600080fd5b5061034661096e565b6040516103539190612578565b60405180910390f35b34801561036857600080fd5b50610383600480360381019061037e91906125e6565b610973565b6040516103909190612578565b60405180910390f35b3480156103a557600080fd5b506103ae610a2b565b005b3480156103bc57600080fd5b506103c5610a3f565b6040516103d291906124e2565b60405180910390f35b3480156103e757600080fd5b506103f0610a69565b6040516103fd919061241c565b60405180910390f35b34801561041257600080fd5b5061042d6004803603810190610428919061263f565b610afb565b005b34801561043b57600080fd5b50610456600480360381019061045191906127b4565b610b11565b005b34801561046457600080fd5b5061047f600480360381019061047a9190612474565b610b73565b60405161048c919061241c565b60405180910390f35b6104af60048036038101906104aa91906128d8565b610b85565b005b3480156104bd57600080fd5b506104d860048036038101906104d39190612921565b610c0a565b6040516104e59190612368565b60405180910390f35b3480156104fa57600080fd5b50610515600480360381019061051091906125e6565b610c9e565b005b600061052282610d22565b9050919050565b60606000805461053890612990565b80601f016020809104026020016040519081016040528092919081815260200182805461056490612990565b80156105b15780601f10610586576101008083540402835291602001916105b1565b820191906000526020600020905b81548152906001019060200180831161059457829003601f168201915b5050505050905090565b60006105c682610d9c565b6004600083815260200190815260200160002060009054906101000a900473ffffffffffffffffffffffffffffffffffffffff169050919050565b600061060c826108bc565b90508073ffffffffffffffffffffffffffffffffffffffff168373ffffffffffffffffffffffffffffffffffffffff16141561067d576040517f08c379a000000000000000000000000000000000000000000000000000000000815260040161067490612a34565b60405180910390fd5b8073ffffffffffffffffffffffffffffffffffffffff1661069c610de7565b73ffffffffffffffffffffffffffffffffffffffff1614806106cb57506106ca816106c5610de7565b610c0a565b5b61070a576040517f08c379a000000000000000000000000000000000000000000000000000000000815260040161070190612ac6565b60405180910390fd5b6107148383610def565b505050565b6000600980549050905090565b610737610731610de7565b82610ea8565b610776576040517f08c379a000000000000000000000000000000000000000000000000000000000815260040161076d90612b58565b60405180910390fd5b610781838383610f3d565b505050565b600061079183610973565b82106107d2576040517f08c379a00000000000000000000000000000000000000000000000000000000081526004016107c990612bea565b60405180910390fd5b600760008473ffffffffffffffffffffffffffffffffffffffff1673ffffffffffffffffffffffffffffffffffffffff168152602001908152602001600020600083815260200190815260200160002054905092915050565b61084683838360405180602001604052806000815250610b11565b505050565b6000610855610719565b8210610896576040517f08c379a000000000000000000000000000000000000000000000000000000000815260040161088d90612c7c565b60405180910390fd5b600982815481106108aa576108a9612c9c565b5b90600052602060002001549050919050565b6000806002600084815260200190815260200160002060009054906101000a900473ffffffffffffffffffffffffffffffffffffffff169050600073ffffffffffffffffffffffffffffffffffffffff168173ffffffffffffffffffffffffffffffffffffffff161415610965576040517f08c379a000000000000000000000000000000000000000000000000000000000815260040161095c90612d17565b60405180910390fd5b80915050919050565b600081565b60008073ffffffffffffffffffffffffffffffffffffffff168273ffffffffffffffffffffffffffffffffffffffff1614156109e4576040517f08c379a00000000000000000000000000000000000000000000000000000000081526004016109db90612da9565b60405180910390fd5b600360008373ffffffffffffffffffffffffffffffffffffffff1673ffffffffffffffffffffffffffffffffffffffff168152602001908152602001600020549050919050565b610a336111a4565b610a3d6000611222565b565b6000600b60009054906101000a900473ffffffffffffffffffffffffffffffffffffffff16905090565b606060018054610a7890612990565b80601f0160208091040260200160405190810160405280929190818152602001828054610aa490612990565b8015610af15780601f10610ac657610100808354040283529160200191610af1565b820191906000526020600020905b815481529060010190602001808311610ad457829003601f168201915b5050505050905090565b610b0d610b06610de7565b83836112e8565b5050565b610b22610b1c610de7565b83610ea8565b610b61576040517f08c379a0000000000000000000000000000000000000000000000000000000008152600401610b5890612b58565b60405180910390fd5b610b6d84848484611455565b50505050565b6060610b7e826114b1565b9050919050565b610b8d6111a4565b6000610b97610719565b90507f00000000000000000000000000000000000000000000000000000000000000008110610bf2576040517ff0747fb200000000000000000000000000000000000000000000000000000000815260040160405180910390fd5b610bfc33826115c4565b610c0681836115e2565b5050565b6000600560008473ffffffffffffffffffffffffffffffffffffffff1673ffffffffffffffffffffffffffffffffffffffff16815260200190815260200160002060008373ffffffffffffffffffffffffffffffffffffffff1673ffffffffffffffffffffffffffffffffffffffff16815260200190815260200160002060009054906101000a900460ff16905092915050565b610ca66111a4565b600073ffffffffffffffffffffffffffffffffffffffff168173ffffffffffffffffffffffffffffffffffffffff161415610d16576040517f08c379a0000000000000000000000000000000000000000000000000000000008152600401610d0d90612e3b565b60405180910390fd5b610d1f81611222565b50565b60007f780e9d63000000000000000000000000000000000000000000000000000000007bffffffffffffffffffffffffffffffffffffffffffffffffffffffff1916827bffffffffffffffffffffffffffffffffffffffffffffffffffffffff19161480610d955750610d9482611656565b5b9050919050565b610da581611738565b610de4576040517f08c379a0000000000000000000000000000000000000000000000000000000008152600401610ddb90612d17565b60405180910390fd5b50565b600033905090565b816004600083815260200190815260200160002060006101000a81548173ffffffffffffffffffffffffffffffffffffffff021916908373ffffffffffffffffffffffffffffffffffffffff160217905550808273ffffffffffffffffffffffffffffffffffffffff16610e62836108bc565b73ffffffffffffffffffffffffffffffffffffffff167f8c5be1e5ebec7d5bd14f71427d1e84f3dd0314c0f7b2291e5b200ac8c7c3b92560405160405180910390a45050565b600080610eb4836108bc565b90508073ffffffffffffffffffffffffffffffffffffffff168473ffffffffffffffffffffffffffffffffffffffff161480610ef65750610ef58185610c0a565b5b80610f3457508373ffffffffffffffffffffffffffffffffffffffff16610f1c846105bb565b73ffffffffffffffffffffffffffffffffffffffff16145b91505092915050565b8273ffffffffffffffffffffffffffffffffffffffff16610f5d826108bc565b73ffffffffffffffffffffffffffffffffffffffff1614610fb3576040517f08c379a0000000000000000000000000000000000000000000000000000000008152600401610faa90612ecd565b60405180910390fd5b600073ffffffffffffffffffffffffffffffffffffffff168273ffffffffffffffffffffffffffffffffffffffff161415611023576040517f08c379a000000000000000000000000000000000000000000000000000000000815260040161101a90612f5f565b60405180910390fd5b61102e8383836117a4565b611039600082610def565b6001600360008573ffffffffffffffffffffffffffffffffffffffff1673ffffffffffffffffffffffffffffffffffffffff16815260200190815260200160002060008282546110899190612fae565b925050819055506001600360008473ffffffffffffffffffffffffffffffffffffffff1673ffffffffffffffffffffffffffffffffffffffff16815260200190815260200160002060008282546110e09190612fe2565b92505081905550816002600083815260200190815260200160002060006101000a81548173ffffffffffffffffffffffffffffffffffffffff021916908373ffffffffffffffffffffffffffffffffffffffff160217905550808273ffffffffffffffffffffffffffffffffffffffff168473ffffffffffffffffffffffffffffffffffffffff167fddf252ad1be2c89b69c2b068fc378daa952ba7f163c4a11628f55a4df523b3ef60405160405180910390a461119f8383836117b4565b505050565b6111ac610de7565b73ffffffffffffffffffffffffffffffffffffffff166111ca610a3f565b73ffffffffffffffffffffffffffffffffffffffff1614611220576040517f08c379a000000000000000000000000000000000000000000000000000000000815260040161121790613084565b60405180910390fd5b565b6000600b60009054906101000a900473ffffffffffffffffffffffffffffffffffffffff16905081600b60006101000a81548173ffffffffffffffffffffffffffffffffffffffff021916908373ffffffffffffffffffffffffffffffffffffffff1602179055508173ffffffffffffffffffffffffffffffffffffffff168173ffffffffffffffffffffffffffffffffffffffff167f8be0079c531659141344cd1fd0a4f28419497f9722a3daafe3b4186f6b6457e060405160405180910390a35050565b8173ffffffffffffffffffffffffffffffffffffffff168373ffffffffffffffffffffffffffffffffffffffff161415611357576040517f08c379a000000000000000000000000000000000000000000000000000000000815260040161134e906130f0565b60405180910390fd5b80600560008573ffffffffffffffffffffffffffffffffffffffff1673ffffffffffffffffffffffffffffffffffffffff16815260200190815260200160002060008473ffffffffffffffffffffffffffffffffffffffff1673ffffffffffffffffffffffffffffffffffffffff16815260200190815260200160002060006101000a81548160ff0219169083151502179055508173ffffffffffffffffffffffffffffffffffffffff168373ffffffffffffffffffffffffffffffffffffffff167f17307eab39ab6107e8899845ad3d59bd9653f200f220920489ca2b5937696c31836040516114489190612368565b60405180910390a3505050565b611460848484610f3d565b61146c848484846117b9565b6114ab576040517f08c379a00000000000000000000000000000000000000000000000000000000081526004016114a290613182565b60405180910390fd5b50505050565b60606114bc82610d9c565b60006006600084815260200190815260200160002080546114dc90612990565b80601f016020809104026020016040519081016040528092919081815260200182805461150890612990565b80156115555780601f1061152a57610100808354040283529160200191611555565b820191906000526020600020905b81548152906001019060200180831161153857829003601f168201915b505050505090506000611566611950565b905060008151141561157c5781925050506115bf565b6000825111156115b15780826040516020016115999291906131de565b604051602081830303815290604052925050506115bf565b6115ba84611967565b925050505b919050565b6115de8282604051806020016040528060008152506119cf565b5050565b6115eb82611738565b61162a576040517f08c379a000000000000000000000000000000000000000000000000000000000815260040161162190613274565b60405180910390fd5b80600660008481526020019081526020016000209080519060200190611651929190612211565b505050565b60007f80ac58cd000000000000000000000000000000000000000000000000000000007bffffffffffffffffffffffffffffffffffffffffffffffffffffffff1916827bffffffffffffffffffffffffffffffffffffffffffffffffffffffff1916148061172157507f5b5e139f000000000000000000000000000000000000000000000000000000007bffffffffffffffffffffffffffffffffffffffffffffffffffffffff1916827bffffffffffffffffffffffffffffffffffffffffffffffffffffffff1916145b80611731575061173082611a2a565b5b9050919050565b60008073ffffffffffffffffffffffffffffffffffffffff166002600084815260200190815260200160002060009054906101000a900473ffffffffffffffffffffffffffffffffffffffff1673ffffffffffffffffffffffffffffffffffffffff1614159050919050565b6117af838383611a94565b505050565b505050565b60006117da8473ffffffffffffffffffffffffffffffffffffffff16611ba8565b15611943578373ffffffffffffffffffffffffffffffffffffffff1663150b7a02611803610de7565b8786866040518563ffffffff1660e01b815260040161182594939291906132e9565b602060405180830381600087803b15801561183f57600080fd5b505af192505050801561187057506040513d601f19601f8201168201806040525081019061186d919061334a565b60015b6118f3573d80600081146118a0576040519150601f19603f3d011682016040523d82523d6000602084013e6118a5565b606091505b506000815114156118eb576040517f08c379a00000000000000000000000000000000000000000000000000000000081526004016118e290613182565b60405180910390fd5b805181602001fd5b63150b7a0260e01b7bffffffffffffffffffffffffffffffffffffffffffffffffffffffff1916817bffffffffffffffffffffffffffffffffffffffffffffffffffffffff191614915050611948565b600190505b949350505050565b606060405180602001604052806000815250905090565b606061197282610d9c565b600061197c611950565b9050600081511161199c57604051806020016040528060008152506119c7565b806119a684611bcb565b6040516020016119b79291906131de565b6040516020818303038152906040525b915050919050565b6119d98383611d2c565b6119e660008484846117b9565b611a25576040517f08c379a0000000000000000000000000000000000000000000000000000000008152600401611a1c90613182565b60405180910390fd5b505050565b60007f01ffc9a7000000000000000000000000000000000000000000000000000000007bffffffffffffffffffffffffffffffffffffffffffffffffffffffff1916827bffffffffffffffffffffffffffffffffffffffffffffffffffffffff1916149050919050565b611a9f838383611f06565b600073ffffffffffffffffffffffffffffffffffffffff168373ffffffffffffffffffffffffffffffffffffffff161415611ae257611add81611f0b565b611b21565b8173ffffffffffffffffffffffffffffffffffffffff168373ffffffffffffffffffffffffffffffffffffffff1614611b2057611b1f8382611f54565b5b5b600073ffffffffffffffffffffffffffffffffffffffff168273ffffffffffffffffffffffffffffffffffffffff161415611b6457611b5f816120c1565b611ba3565b8273ffffffffffffffffffffffffffffffffffffffff168273ffffffffffffffffffffffffffffffffffffffff1614611ba257611ba18282612192565b5b5b505050565b6000808273ffffffffffffffffffffffffffffffffffffffff163b119050919050565b60606000821415611c13576040518060400160405280600181526020017f30000000000000000000000000000000000000000000000000000000000000008152509050611d27565b600082905060005b60008214611c45578080611c2e90613377565b915050600a82611c3e91906133ef565b9150611c1b565b60008167ffffffffffffffff811115611c6157611c60612689565b5b6040519080825280601f01601f191660200182016040528015611c935781602001600182028036833780820191505090505b5090505b60008514611d2057600182611cac9190612fae565b9150600a85611cbb9190613420565b6030611cc79190612fe2565b60f81b818381518110611cdd57611cdc612c9c565b5b60200101907effffffffffffffffffffffffffffffffffffffffffffffffffffffffffffff1916908160001a905350600a85611d1991906133ef565b9450611c97565b8093505050505b919050565b600073ffffffffffffffffffffffffffffffffffffffff168273ffffffffffffffffffffffffffffffffffffffff161415611d9c576040517f08c379a0000000000000000000000000000000000000000000000000000000008152600401611d939061349d565b60405180910390fd5b611da581611738565b15611de5576040517f08c379a0000000000000000000000000000000000000000000000000000000008152600401611ddc90613509565b60405180910390fd5b611df1600083836117a4565b6001600360008473ffffffffffffffffffffffffffffffffffffffff1673ffffffffffffffffffffffffffffffffffffffff1681526020019081526020016000206000828254611e419190612fe2565b92505081905550816002600083815260200190815260200160002060006101000a81548173ffffffffffffffffffffffffffffffffffffffff021916908373ffffffffffffffffffffffffffffffffffffffff160217905550808273ffffffffffffffffffffffffffffffffffffffff16600073ffffffffffffffffffffffffffffffffffffffff167fddf252ad1be2c89b69c2b068fc378daa952ba7f163c4a11628f55a4df523b3ef60405160405180910390a4611f02600083836117b4565b5050565b505050565b600980549050600a600083815260200190815260200160002081905550600981908060018154018082558091505060019003906000526020600020016000909190919091505550565b60006001611f6184610973565b611f6b9190612fae565b9050600060086000848152602001908152602001600020549050818114612050576000600760008673ffffffffffffffffffffffffffffffffffffffff1673ffffffffffffffffffffffffffffffffffffffff168152602001908152602001600020600084815260200190815260200160002054905080600760008773ffffffffffffffffffffffffffffffffffffffff1673ffffffffffffffffffffffffffffffffffffffff168152602001908152602001600020600084815260200190815260200160002081905550816008600083815260200190815260200160002081905550505b6008600084815260200190815260200160002060009055600760008573ffffffffffffffffffffffffffffffffffffffff1673ffffffffffffffffffffffffffffffffffffffff16815260200190815260200160002060008381526020019081526020016000206000905550505050565b600060016009805490506120d59190612fae565b90506000600a600084815260200190815260200160002054905060006009838154811061210557612104612c9c565b5b90600052602060002001549050806009838154811061212757612126612c9c565b5b906000526020600020018190555081600a600083815260200190815260200160002081905550600a600085815260200190815260200160002060009055600980548061217657612175613529565b5b6001900381819060005260206000200160009055905550505050565b600061219d83610973565b905081600760008573ffffffffffffffffffffffffffffffffffffffff1673ffffffffffffffffffffffffffffffffffffffff168152602001908152602001600020600083815260200190815260200160002081905550806008600084815260200190815260200160002081905550505050565b82805461221d90612990565b90600052602060002090601f01602090048101928261223f5760008555612286565b82601f1061225857805160ff1916838001178555612286565b82800160010185558215612286579182015b8281111561228557825182559160200191906001019061226a565b5b5090506122939190612297565b5090565b5b808211156122b0576000816000905550600101612298565b5090565b6000604051905090565b600080fd5b600080fd5b60007fffffffff0000000000000000000000000000000000000000000000000000000082169050919050565b6122fd816122c8565b811461230857600080fd5b50565b60008135905061231a816122f4565b92915050565b600060208284031215612336576123356122be565b5b60006123448482850161230b565b91505092915050565b60008115159050919050565b6123628161234d565b82525050565b600060208201905061237d6000830184612359565b92915050565b600081519050919050565b600082825260208201905092915050565b60005b838110156123bd5780820151818401526020810190506123a2565b838111156123cc576000848401525b50505050565b6000601f19601f8301169050919050565b60006123ee82612383565b6123f8818561238e565b935061240881856020860161239f565b612411816123d2565b840191505092915050565b6000602082019050818103600083015261243681846123e3565b905092915050565b6000819050919050565b6124518161243e565b811461245c57600080fd5b50565b60008135905061246e81612448565b92915050565b60006020828403121561248a576124896122be565b5b60006124988482850161245f565b91505092915050565b600073ffffffffffffffffffffffffffffffffffffffff82169050919050565b60006124cc826124a1565b9050919050565b6124dc816124c1565b82525050565b60006020820190506124f760008301846124d3565b92915050565b612506816124c1565b811461251157600080fd5b50565b600081359050612523816124fd565b92915050565b600080604083850312156125405761253f6122be565b5b600061254e85828601612514565b925050602061255f8582860161245f565b9150509250929050565b6125728161243e565b82525050565b600060208201905061258d6000830184612569565b92915050565b6000806000606084860312156125ac576125ab6122be565b5b60006125ba86828701612514565b93505060206125cb86828701612514565b92505060406125dc8682870161245f565b9150509250925092565b6000602082840312156125fc576125fb6122be565b5b600061260a84828501612514565b91505092915050565b61261c8161234d565b811461262757600080fd5b50565b60008135905061263981612613565b92915050565b60008060408385031215612656576126556122be565b5b600061266485828601612514565b92505060206126758582860161262a565b9150509250929050565b600080fd5b600080fd5b7f4e487b7100000000000000000000000000000000000000000000000000000000600052604160045260246000fd5b6126c1826123d2565b810181811067ffffffffffffffff821117156126e0576126df612689565b5b80604052505050565b60006126f36122b4565b90506126ff82826126b8565b919050565b600067ffffffffffffffff82111561271f5761271e612689565b5b612728826123d2565b9050602081019050919050565b82818337600083830152505050565b600061275761275284612704565b6126e9565b90508281526020810184848401111561277357612772612684565b5b61277e848285612735565b509392505050565b600082601f83011261279b5761279a61267f565b5b81356127ab848260208601612744565b91505092915050565b600080600080608085870312156127ce576127cd6122be565b5b60006127dc87828801612514565b94505060206127ed87828801612514565b93505060406127fe8782880161245f565b925050606085013567ffffffffffffffff81111561281f5761281e6122c3565b5b61282b87828801612786565b91505092959194509250565b600067ffffffffffffffff82111561285257612851612689565b5b61285b826123d2565b9050602081019050919050565b600061287b61287684612837565b6126e9565b90508281526020810184848401111561289757612896612684565b5b6128a2848285612735565b509392505050565b600082601f8301126128bf576128be61267f565b5b81356128cf848260208601612868565b91505092915050565b6000602082840312156128ee576128ed6122be565b5b600082013567ffffffffffffffff81111561290c5761290b6122c3565b5b612918848285016128aa565b91505092915050565b60008060408385031215612938576129376122be565b5b600061294685828601612514565b925050602061295785828601612514565b9150509250929050565b7f4e487b7100000000000000000000000000000000000000000000000000000000600052602260045260246000fd5b600060028204905060018216806129a857607f821691505b602082108114156129bc576129bb612961565b5b50919050565b7f4552433732313a20617070726f76616c20746f2063757272656e74206f776e6560008201527f7200000000000000000000000000000000000000000000000000000000000000602082015250565b6000612a1e60218361238e565b9150612a29826129c2565b604082019050919050565b60006020820190508181036000830152612a4d81612a11565b9050919050565b7f4552433732313a20617070726f76652063616c6c6572206973206e6f7420746f60008201527f6b656e206f776e6572206e6f7220617070726f76656420666f7220616c6c0000602082015250565b6000612ab0603e8361238e565b9150612abb82612a54565b604082019050919050565b60006020820190508181036000830152612adf81612aa3565b9050919050565b7f4552433732313a2063616c6c6572206973206e6f7420746f6b656e206f776e6560008201527f72206e6f7220617070726f766564000000000000000000000000000000000000602082015250565b6000612b42602e8361238e565b9150612b4d82612ae6565b604082019050919050565b60006020820190508181036000830152612b7181612b35565b9050919050565b7f455243373231456e756d657261626c653a206f776e657220696e646578206f7560008201527f74206f6620626f756e6473000000000000000000000000000000000000000000602082015250565b6000612bd4602b8361238e565b9150612bdf82612b78565b604082019050919050565b60006020820190508181036000830152612c0381612bc7565b9050919050565b7f455243373231456e756d657261626c653a20676c6f62616c20696e646578206f60008201527f7574206f6620626f756e64730000000000000000000000000000000000000000602082015250565b6000612c66602c8361238e565b9150612c7182612c0a565b604082019050919050565b60006020820190508181036000830152612c9581612c59565b9050919050565b7f4e487b7100000000000000000000000000000000000000000000000000000000600052603260045260246000fd5b7f4552433732313a20696e76616c696420746f6b656e2049440000000000000000600082015250565b6000612d0160188361238e565b9150612d0c82612ccb565b602082019050919050565b60006020820190508181036000830152612d3081612cf4565b9050919050565b7f4552433732313a2061646472657373207a65726f206973206e6f74206120766160008201527f6c6964206f776e65720000000000000000000000000000000000000000000000602082015250565b6000612d9360298361238e565b9150612d9e82612d37565b604082019050919050565b60006020820190508181036000830152612dc281612d86565b9050919050565b7f4f776e61626c653a206e6577206f776e657220697320746865207a65726f206160008201527f6464726573730000000000000000000000000000000000000000000000000000602082015250565b6000612e2560268361238e565b9150612e3082612dc9565b604082019050919050565b60006020820190508181036000830152612e5481612e18565b9050919050565b7f4552433732313a207472616e736665722066726f6d20696e636f72726563742060008201527f6f776e6572000000000000000000000000000000000000000000000000000000602082015250565b6000612eb760258361238e565b9150612ec282612e5b565b604082019050919050565b60006020820190508181036000830152612ee681612eaa565b9050919050565b7f4552433732313a207472616e7366657220746f20746865207a65726f2061646460008201527f7265737300000000000000000000000000000000000000000000000000000000602082015250565b6000612f4960248361238e565b9150612f5482612eed565b604082019050919050565b60006020820190508181036000830152612f7881612f3c565b9050919050565b7f4e487b7100000000000000000000000000000000000000000000000000000000600052601160045260246000fd5b6000612fb98261243e565b9150612fc48361243e565b925082821015612fd757612fd6612f7f565b5b828203905092915050565b6000612fed8261243e565b9150612ff88361243e565b9250827fffffffffffffffffffffffffffffffffffffffffffffffffffffffffffffffff0382111561302d5761302c612f7f565b5b828201905092915050565b7f4f776e61626c653a2063616c6c6572206973206e6f7420746865206f776e6572600082015250565b600061306e60208361238e565b915061307982613038565b602082019050919050565b6000602082019050818103600083015261309d81613061565b9050919050565b7f4552433732313a20617070726f766520746f2063616c6c657200000000000000600082015250565b60006130da60198361238e565b91506130e5826130a4565b602082019050919050565b60006020820190508181036000830152613109816130cd565b9050919050565b7f4552433732313a207472616e7366657220746f206e6f6e20455243373231526560008201527f63656976657220696d706c656d656e7465720000000000000000000000000000602082015250565b600061316c60328361238e565b915061317782613110565b604082019050919050565b6000602082019050818103600083015261319b8161315f565b9050919050565b600081905092915050565b60006131b882612383565b6131c281856131a2565b93506131d281856020860161239f565b80840191505092915050565b60006131ea82856131ad565b91506131f682846131ad565b91508190509392505050565b7f45524337323155524953746f726167653a2055524920736574206f66206e6f6e60008201527f6578697374656e7420746f6b656e000000000000000000000000000000000000602082015250565b600061325e602e8361238e565b915061326982613202565b604082019050919050565b6000602082019050818103600083015261328d81613251565b9050919050565b600081519050919050565b600082825260208201905092915050565b60006132bb82613294565b6132c5818561329f565b93506132d581856020860161239f565b6132de816123d2565b840191505092915050565b60006080820190506132fe60008301876124d3565b61330b60208301866124d3565b6133186040830185612569565b818103606083015261332a81846132b0565b905095945050505050565b600081519050613344816122f4565b92915050565b6000602082840312156133605761335f6122be565b5b600061336e84828501613335565b91505092915050565b60006133828261243e565b91507fffffffffffffffffffffffffffffffffffffffffffffffffffffffffffffffff8214156133b5576133b4612f7f565b5b600182019050919050565b7f4e487b7100000000000000000000000000000000000000000000000000000000600052601260045260246000fd5b60006133fa8261243e565b91506134058361243e565b925082613415576134146133c0565b5b828204905092915050565b600061342b8261243e565b91506134368361243e565b925082613446576134456133c0565b5b828206905092915050565b7f4552433732313a206d696e7420746f20746865207a65726f2061646472657373600082015250565b600061348760208361238e565b915061349282613451565b602082019050919050565b600060208201905081810360008301526134b68161347a565b9050919050565b7f4552433732313a20746f6b656e20616c7265616479206d696e74656400000000600082015250565b60006134f3601c8361238e565b91506134fe826134bd565b602082019050919050565b60006020820190508181036000830152613522816134e6565b9050919050565b7f4e487b7100000000000000000000000000000000000000000000000000000000600052603160045260246000fdfea264697066735822122014aa55edf385866b0ecdd0b8e1c51845fd9c61409b45edfe5cc764fa4679eca464736f6c63430008080033a26469706673582212204701d580258abcdeba277835a7466785fe728367ea50a3a29a6664668b6d842464736f6c63430008080033",
  "devdoc": {
    "kind": "dev",
    "methods": {},
    "version": 1
  },
  "userdoc": {
    "kind": "user",
    "methods": {},
    "version": 1
  },
  "storageLayout": {
    "storage": [],
    "types": null
  }
}