{
  "_format": "hh-sol-artifact-1",
  "contractName": "ERC721Factory",
  "sourceName": "contracts/ERC721Factory.sol",
  "abi": [
    {
      "anonymous": false,
      "inputs": [
        {
          "indexed": false,
          "internalType": "string",
          "name": "name",
          "type": "string"
        },
        {
          "indexed": false,
          "internalType": "string",
          "name": "symbol",
          "type": "string"
        },
        {
          "indexed": false,
          "internalType": "uint256",
          "name": "maxSupply",
          "type": "uint256"
        },
        {
          "indexed": false,
          "internalType": "address",
          "name": "contractAddress",
          "type": "address"
        },
        {
          "indexed": false,
          "internalType": "address",
          "name": "sender",
          "type": "address"
        }
      ],
      "name": "NftContractCreated",
      "type": "event"
    },
    {
      "inputs": [
        {
          "internalType": "string",
          "name": "_name",
          "type": "string"
        },
        {
          "internalType": "string",
          "name": "_symbol",
          "type": "string"
        },
        {
          "internalType": "uint256",
          "name": "_maxSupply",
          "type": "uint256"
        }
      ],
      "name": "createNewNftContract",
      "outputs": [
        {
          "internalType": "contract myERC721",
          "name": "",
          "type": "address"
        }
      ],
      "stateMutability": "nonpayable",
      "type": "function"
    }
  ],
  "bytecode": "0x608060405234801561001057600080fd5b50614941806100206000396000f3fe60806040523480156200001157600080fd5b50600436106200002e5760003560e01c80637709e7aa1462000033575b600080fd5b6200005160048036038101906200004b9190620003fe565b62000069565b60405162000060919062000523565b60405180910390f35b6000620000997f9bd50243ba6a20413dc68ed22c185adad9aefde06e7761d4e91170f4cc84e2ec60001b6200023c565b620000c77f58b93e97b262024d7be25b5a93c0dcfc2327ab12835f5114e8d47d4c920f901e60001b6200023c565b620000f57fc0c3ca2cb9b8524f4712aa341a0f177f81535f6991bc532e3e37c028b801158160001b6200023c565b60008484843360405162000109906200023f565b62000118949392919062000609565b604051809103906000f08015801562000135573d6000803e3d6000fd5b509050620001667f0419e9a8243857c5f8fd84df1fd9f1d18eeec9c9c01650eb285fd12d25c22c2460001b6200023c565b620001947fafbfb2dd5a3e38a14efb6dcf6be5ced6c867ad33f90374ac65cc40b3f0826ce460001b6200023c565b7fbf23fc03d0867b5fcb13c21b1d5f7cd09332f69b63ca0d94aea9e6c177f444558585858433604051620001cd95949392919062000664565b60405180910390a1620002037f6fc95788456e2aace7a6e7a06c738f3d09977df0d3f360a572c14e7582d03e2260001b6200023c565b620002317fa0321ae797c2d061155f107b46dadfaca2d55575ec398954ad9dd87881d319a260001b6200023c565b809150509392505050565b50565b61423c80620006d083390190565b6000604051905090565b600080fd5b600080fd5b600080fd5b600080fd5b6000601f19601f8301169050919050565b7f4e487b7100000000000000000000000000000000000000000000000000000000600052604160045260246000fd5b620002b6826200026b565b810181811067ffffffffffffffff82111715620002d857620002d76200027c565b5b80604052505050565b6000620002ed6200024d565b9050620002fb8282620002ab565b919050565b600067ffffffffffffffff8211156200031e576200031d6200027c565b5b62000329826200026b565b9050602081019050919050565b82818337600083830152505050565b60006200035c620003568462000300565b620002e1565b9050828152602081018484840111156200037b576200037a62000266565b5b6200038884828562000336565b509392505050565b600082601f830112620003a857620003a762000261565b5b8135620003ba84826020860162000345565b91505092915050565b6000819050919050565b620003d881620003c3565b8114620003e457600080fd5b50565b600081359050620003f881620003cd565b92915050565b6000806000606084860312156200041a576200041962000257565b5b600084013567ffffffffffffffff8111156200043b576200043a6200025c565b5b620004498682870162000390565b935050602084013567ffffffffffffffff8111156200046d576200046c6200025c565b5b6200047b8682870162000390565b92505060406200048e86828701620003e7565b9150509250925092565b600073ffffffffffffffffffffffffffffffffffffffff82169050919050565b6000819050919050565b6000620004e3620004dd620004d78462000498565b620004b8565b62000498565b9050919050565b6000620004f782620004c2565b9050919050565b60006200050b82620004ea565b9050919050565b6200051d81620004fe565b82525050565b60006020820190506200053a600083018462000512565b92915050565b600081519050919050565b600082825260208201905092915050565b60005b838110156200057c5780820151818401526020810190506200055f565b838111156200058c576000848401525b50505050565b60006200059f8262000540565b620005ab81856200054b565b9350620005bd8185602086016200055c565b620005c8816200026b565b840191505092915050565b620005de81620003c3565b82525050565b6000620005f18262000498565b9050919050565b6200060381620005e4565b82525050565b6000608082019050818103600083015262000625818762000592565b905081810360208301526200063b818662000592565b90506200064c6040830185620005d3565b6200065b6060830184620005f8565b95945050505050565b600060a082019050818103600083015262000680818862000592565b9050818103602083015262000696818762000592565b9050620006a76040830186620005d3565b620006b66060830185620005f8565b620006c56080830184620005f8565b969550505050505056fe60a06040523480156200001157600080fd5b506040516200423c3803806200423c8339818101604052810190620000379190620006c4565b8383816000908051906020019062000051929190620003d7565b5080600190805190602001906200006a929190620003d7565b5050506200008d62000081620001b460201b60201c565b620001bc60201b60201c565b620000c17f69982fd73a4d9c04c83ab362f86fad5369081f2492ce56cbcac6e4568e96663560001b6200028260201b60201c565b620000f57fc24e91551423cc0a6cec39d8723c75251ce64465f889576c381e013b23dc7f9e60001b6200028260201b60201c565b620001297f659de8b749e738ff73ba683bbd38e20fe501e6adc783d2a85b4d091d4847b29c60001b6200028260201b60201c565b8160808181525050620001657f33bce5d5e84ba784e42f0a2a23886adacaeafb4eedb7b7634ffc3c37bf6e367360001b6200028260201b60201c565b620001997f3c686a003b9376542b65cdcd29557d399f58733bd90827e478ef69c23443d76760001b6200028260201b60201c565b620001aa816200028560201b60201c565b50505050620008f4565b600033905090565b6000600b60009054906101000a900473ffffffffffffffffffffffffffffffffffffffff16905081600b60006101000a81548173ffffffffffffffffffffffffffffffffffffffff021916908373ffffffffffffffffffffffffffffffffffffffff1602179055508173ffffffffffffffffffffffffffffffffffffffff168173ffffffffffffffffffffffffffffffffffffffff167f8be0079c531659141344cd1fd0a4f28419497f9722a3daafe3b4186f6b6457e060405160405180910390a35050565b50565b620002956200031c60201b60201c565b600073ffffffffffffffffffffffffffffffffffffffff168173ffffffffffffffffffffffffffffffffffffffff16141562000308576040517f08c379a0000000000000000000000000000000000000000000000000000000008152600401620002ff90620007fb565b60405180910390fd5b6200031981620001bc60201b60201c565b50565b6200032c620001b460201b60201c565b73ffffffffffffffffffffffffffffffffffffffff1662000352620003ad60201b60201c565b73ffffffffffffffffffffffffffffffffffffffff1614620003ab576040517f08c379a0000000000000000000000000000000000000000000000000000000008152600401620003a2906200086d565b60405180910390fd5b565b6000600b60009054906101000a900473ffffffffffffffffffffffffffffffffffffffff16905090565b828054620003e590620008be565b90600052602060002090601f01602090048101928262000409576000855562000455565b82601f106200042457805160ff191683800117855562000455565b8280016001018555821562000455579182015b828111156200045457825182559160200191906001019062000437565b5b50905062000464919062000468565b5090565b5b808211156200048357600081600090555060010162000469565b5090565b6000604051905090565b600080fd5b600080fd5b600080fd5b600080fd5b6000601f19601f8301169050919050565b7f4e487b7100000000000000000000000000000000000000000000000000000000600052604160045260246000fd5b620004f082620004a5565b810181811067ffffffffffffffff82111715620005125762000511620004b6565b5b80604052505050565b60006200052762000487565b9050620005358282620004e5565b919050565b600067ffffffffffffffff821115620005585762000557620004b6565b5b6200056382620004a5565b9050602081019050919050565b60005b838110156200059057808201518184015260208101905062000573565b83811115620005a0576000848401525b50505050565b6000620005bd620005b7846200053a565b6200051b565b905082815260208101848484011115620005dc57620005db620004a0565b5b620005e984828562000570565b509392505050565b600082601f8301126200060957620006086200049b565b5b81516200061b848260208601620005a6565b91505092915050565b6000819050919050565b620006398162000624565b81146200064557600080fd5b50565b60008151905062000659816200062e565b92915050565b600073ffffffffffffffffffffffffffffffffffffffff82169050919050565b60006200068c826200065f565b9050919050565b6200069e816200067f565b8114620006aa57600080fd5b50565b600081519050620006be8162000693565b92915050565b60008060008060808587031215620006e157620006e062000491565b5b600085015167ffffffffffffffff81111562000702576200070162000496565b5b6200071087828801620005f1565b945050602085015167ffffffffffffffff81111562000734576200073362000496565b5b6200074287828801620005f1565b9350506040620007558782880162000648565b92505060606200076887828801620006ad565b91505092959194509250565b600082825260208201905092915050565b7f4f776e61626c653a206e6577206f776e657220697320746865207a65726f206160008201527f6464726573730000000000000000000000000000000000000000000000000000602082015250565b6000620007e360268362000774565b9150620007f08262000785565b604082019050919050565b600060208201905081810360008301526200081681620007d4565b9050919050565b7f4f776e61626c653a2063616c6c6572206973206e6f7420746865206f776e6572600082015250565b60006200085560208362000774565b915062000862826200081d565b602082019050919050565b60006020820190508181036000830152620008888162000846565b9050919050565b7f4e487b7100000000000000000000000000000000000000000000000000000000600052602260045260246000fd5b60006002820490506001821680620008d757607f821691505b60208210811415620008ee57620008ed6200088f565b5b50919050565b60805161392c620009106000396000610d7e015261392c6000f3fe60806040526004361061012a5760003560e01c80636817c76c116100ab578063a22cb4651161006f578063a22cb46514610406578063b88d4fde1461042f578063c87b56dd14610458578063d85d3d2714610495578063e985e9c5146104b1578063f2fde38b146104ee5761012a565b80636817c76c1461033157806370a082311461035c578063715018a6146103995780638da5cb5b146103b057806395d89b41146103db5761012a565b806323b872dd116100f257806323b872dd146102285780632f745c591461025157806342842e0e1461028e5780634f6ccce7146102b75780636352211e146102f45761012a565b806301ffc9a71461012f57806306fdde031461016c578063081812fc14610197578063095ea7b3146101d457806318160ddd146101fd575b600080fd5b34801561013b57600080fd5b50610156600480360381019061015191906126be565b610517565b6040516101639190612706565b60405180910390f35b34801561017857600080fd5b506101816105ac565b60405161018e91906127ba565b60405180910390f35b3480156101a357600080fd5b506101be60048036038101906101b99190612812565b61063e565b6040516101cb9190612880565b60405180910390f35b3480156101e057600080fd5b506101fb60048036038101906101f691906128c7565b610684565b005b34801561020957600080fd5b5061021261079c565b60405161021f9190612916565b60405180910390f35b34801561023457600080fd5b5061024f600480360381019061024a9190612931565b6107a9565b005b34801561025d57600080fd5b50610278600480360381019061027391906128c7565b610809565b6040516102859190612916565b60405180910390f35b34801561029a57600080fd5b506102b560048036038101906102b09190612931565b6108ae565b005b3480156102c357600080fd5b506102de60048036038101906102d99190612812565b6108ce565b6040516102eb9190612916565b60405180910390f35b34801561030057600080fd5b5061031b60048036038101906103169190612812565b61093f565b6040516103289190612880565b60405180910390f35b34801561033d57600080fd5b506103466109f1565b6040516103539190612916565b60405180910390f35b34801561036857600080fd5b50610383600480360381019061037e9190612984565b6109f6565b6040516103909190612916565b60405180910390f35b3480156103a557600080fd5b506103ae610aae565b005b3480156103bc57600080fd5b506103c5610ac2565b6040516103d29190612880565b60405180910390f35b3480156103e757600080fd5b506103f0610aec565b6040516103fd91906127ba565b60405180910390f35b34801561041257600080fd5b5061042d600480360381019061042891906129dd565b610b7e565b005b34801561043b57600080fd5b5061045660048036038101906104519190612b52565b610b94565b005b34801561046457600080fd5b5061047f600480360381019061047a9190612812565b610bf6565b60405161048c91906127ba565b60405180910390f35b6104af60048036038101906104aa9190612c76565b610c8c565b005b3480156104bd57600080fd5b506104d860048036038101906104d39190612cbf565b610f21565b6040516104e59190612706565b60405180910390f35b3480156104fa57600080fd5b5061051560048036038101906105109190612984565b610fb5565b005b60006105447e6d047f4306820813505e11dedf48b667362c371b85dd942b2c817894dd2b6c60001b611039565b6105707fc9d5bf18ca11e2773316b389a29a5f904746dc94549debc15ed1588cde7a44d160001b611039565b61059c7f63470520ffb4d288b2df3c39e162f1ec7c61de73cd80d29ec65fd193dcb0b93a60001b611039565b6105a58261103c565b9050919050565b6060600080546105bb90612d2e565b80601f01602080910402602001604051908101604052809291908181526020018280546105e790612d2e565b80156106345780601f1061060957610100808354040283529160200191610634565b820191906000526020600020905b81548152906001019060200180831161061757829003601f168201915b5050505050905090565b6000610649826110b6565b6004600083815260200190815260200160002060009054906101000a900473ffffffffffffffffffffffffffffffffffffffff169050919050565b600061068f8261093f565b90508073ffffffffffffffffffffffffffffffffffffffff168373ffffffffffffffffffffffffffffffffffffffff161415610700576040517f08c379a00000000000000000000000000000000000000000000000000000000081526004016106f790612dd2565b60405180910390fd5b8073ffffffffffffffffffffffffffffffffffffffff1661071f611101565b73ffffffffffffffffffffffffffffffffffffffff16148061074e575061074d81610748611101565b610f21565b5b61078d576040517f08c379a000000000000000000000000000000000000000000000000000000000815260040161078490612e64565b60405180910390fd5b6107978383611109565b505050565b6000600980549050905090565b6107ba6107b4611101565b826111c2565b6107f9576040517f08c379a00000000000000000000000000000000000000000000000000000000081526004016107f090612ef6565b60405180910390fd5b610804838383611257565b505050565b6000610814836109f6565b8210610855576040517f08c379a000000000000000000000000000000000000000000000000000000000815260040161084c90612f88565b60405180910390fd5b600760008473ffffffffffffffffffffffffffffffffffffffff1673ffffffffffffffffffffffffffffffffffffffff168152602001908152602001600020600083815260200190815260200160002054905092915050565b6108c983838360405180602001604052806000815250610b94565b505050565b60006108d861079c565b8210610919576040517f08c379a00000000000000000000000000000000000000000000000000000000081526004016109109061301a565b60405180910390fd5b6009828154811061092d5761092c61303a565b5b90600052602060002001549050919050565b6000806002600084815260200190815260200160002060009054906101000a900473ffffffffffffffffffffffffffffffffffffffff169050600073ffffffffffffffffffffffffffffffffffffffff168173ffffffffffffffffffffffffffffffffffffffff1614156109e8576040517f08c379a00000000000000000000000000000000000000000000000000000000081526004016109df906130b5565b60405180910390fd5b80915050919050565b600081565b60008073ffffffffffffffffffffffffffffffffffffffff168273ffffffffffffffffffffffffffffffffffffffff161415610a67576040517f08c379a0000000000000000000000000000000000000000000000000000000008152600401610a5e90613147565b60405180910390fd5b600360008373ffffffffffffffffffffffffffffffffffffffff1673ffffffffffffffffffffffffffffffffffffffff168152602001908152602001600020549050919050565b610ab66114be565b610ac0600061153c565b565b6000600b60009054906101000a900473ffffffffffffffffffffffffffffffffffffffff16905090565b606060018054610afb90612d2e565b80601f0160208091040260200160405190810160405280929190818152602001828054610b2790612d2e565b8015610b745780601f10610b4957610100808354040283529160200191610b74565b820191906000526020600020905b815481529060010190602001808311610b5757829003601f168201915b5050505050905090565b610b90610b89611101565b8383611602565b5050565b610ba5610b9f611101565b836111c2565b610be4576040517f08c379a0000000000000000000000000000000000000000000000000000000008152600401610bdb90612ef6565b60405180910390fd5b610bf08484848461176f565b50505050565b6060610c247fa2316962ec24aa5361ea97f20aa0a015213ebf9423d275dd18e0d607b4da115c60001b611039565b610c507f38c539b4daed1c120cf6780cfb3de9bafcd390fc0493bfb3861e86c80b324d0960001b611039565b610c7c7f441edcda6352c927191468a376a3d125aa79b2c646d092135eb003eba749fe3a60001b611039565b610c85826117cb565b9050919050565b610c946114be565b610cc07f1faefeeaaa9876c40620759f3ca9d7af391253f4bfeecf6e548acbff2578618460001b611039565b610cec7ff96de29c400f3e6822e5b262c32adf1fbde677a507f99a8d025a6093fa44bcbb60001b611039565b610d187f9c703b7650dcde64b397192c65082640724830f3bc7e5767f6fb7f47986c143560001b611039565b6000610d2261079c565b9050610d507f896bde4c392d355abea72a303b0522b6b456d57041849f27b3d90ea2d37d394860001b611039565b610d7c7fceda3db417e25dfcf8c9419c283d69f750ab9c8a01f41c9c608f978828f04f5560001b611039565b7f00000000000000000000000000000000000000000000000000000000000000008110610e2d57610dcf7f976029a3811be2627f69dc2c24f3ce4567e92a831329f2c46ba9804c08935a6260001b611039565b610dfb7f368b5852e5f4ef38bc7eca2a027b4b110acbb47207860b252c22d31b87f90ad660001b611039565b6040517ff0747fb200000000000000000000000000000000000000000000000000000000815260040160405180910390fd5b610e597f4563342183c73f1b9df1339a4ba961b084a6b6f4602a8b387e9edf78a753c15560001b611039565b610e857fbf7e2c2e9aea211d1a0234ff9207254d6af9fb73e8f2df76202f63908d92217260001b611039565b610eb17f20e51473b524e85ffea084df22a283b407e6914854b54ef5d24b7c77512f933c60001b611039565b610ebb33826118de565b610ee77f2f3ec3ccfd7db62446bffaff11608e61d05cc382d69b67957889b6b06906f95360001b611039565b610f137f89fde999a73760427332f3f3962055b00f945c0e21200511f745f295de6a80c260001b611039565b610f1d81836118fc565b5050565b6000600560008473ffffffffffffffffffffffffffffffffffffffff1673ffffffffffffffffffffffffffffffffffffffff16815260200190815260200160002060008373ffffffffffffffffffffffffffffffffffffffff1673ffffffffffffffffffffffffffffffffffffffff16815260200190815260200160002060009054906101000a900460ff16905092915050565b610fbd6114be565b600073ffffffffffffffffffffffffffffffffffffffff168173ffffffffffffffffffffffffffffffffffffffff16141561102d576040517f08c379a0000000000000000000000000000000000000000000000000000000008152600401611024906131d9565b60405180910390fd5b6110368161153c565b50565b50565b60007f780e9d63000000000000000000000000000000000000000000000000000000007bffffffffffffffffffffffffffffffffffffffffffffffffffffffff1916827bffffffffffffffffffffffffffffffffffffffffffffffffffffffff191614806110af57506110ae82611970565b5b9050919050565b6110bf81611a52565b6110fe576040517f08c379a00000000000000000000000000000000000000000000000000000000081526004016110f5906130b5565b60405180910390fd5b50565b600033905090565b816004600083815260200190815260200160002060006101000a81548173ffffffffffffffffffffffffffffffffffffffff021916908373ffffffffffffffffffffffffffffffffffffffff160217905550808273ffffffffffffffffffffffffffffffffffffffff1661117c8361093f565b73ffffffffffffffffffffffffffffffffffffffff167f8c5be1e5ebec7d5bd14f71427d1e84f3dd0314c0f7b2291e5b200ac8c7c3b92560405160405180910390a45050565b6000806111ce8361093f565b90508073ffffffffffffffffffffffffffffffffffffffff168473ffffffffffffffffffffffffffffffffffffffff161480611210575061120f8185610f21565b5b8061124e57508373ffffffffffffffffffffffffffffffffffffffff166112368461063e565b73ffffffffffffffffffffffffffffffffffffffff16145b91505092915050565b8273ffffffffffffffffffffffffffffffffffffffff166112778261093f565b73ffffffffffffffffffffffffffffffffffffffff16146112cd576040517f08c379a00000000000000000000000000000000000000000000000000000000081526004016112c49061326b565b60405180910390fd5b600073ffffffffffffffffffffffffffffffffffffffff168273ffffffffffffffffffffffffffffffffffffffff16141561133d576040517f08c379a0000000000000000000000000000000000000000000000000000000008152600401611334906132fd565b60405180910390fd5b611348838383611abe565b611353600082611109565b6001600360008573ffffffffffffffffffffffffffffffffffffffff1673ffffffffffffffffffffffffffffffffffffffff16815260200190815260200160002060008282546113a3919061334c565b925050819055506001600360008473ffffffffffffffffffffffffffffffffffffffff1673ffffffffffffffffffffffffffffffffffffffff16815260200190815260200160002060008282546113fa9190613380565b92505081905550816002600083815260200190815260200160002060006101000a81548173ffffffffffffffffffffffffffffffffffffffff021916908373ffffffffffffffffffffffffffffffffffffffff160217905550808273ffffffffffffffffffffffffffffffffffffffff168473ffffffffffffffffffffffffffffffffffffffff167fddf252ad1be2c89b69c2b068fc378daa952ba7f163c4a11628f55a4df523b3ef60405160405180910390a46114b9838383611b52565b505050565b6114c6611101565b73ffffffffffffffffffffffffffffffffffffffff166114e4610ac2565b73ffffffffffffffffffffffffffffffffffffffff161461153a576040517f08c379a000000000000000000000000000000000000000000000000000000000815260040161153190613422565b60405180910390fd5b565b6000600b60009054906101000a900473ffffffffffffffffffffffffffffffffffffffff16905081600b60006101000a81548173ffffffffffffffffffffffffffffffffffffffff021916908373ffffffffffffffffffffffffffffffffffffffff1602179055508173ffffffffffffffffffffffffffffffffffffffff168173ffffffffffffffffffffffffffffffffffffffff167f8be0079c531659141344cd1fd0a4f28419497f9722a3daafe3b4186f6b6457e060405160405180910390a35050565b8173ffffffffffffffffffffffffffffffffffffffff168373ffffffffffffffffffffffffffffffffffffffff161415611671576040517f08c379a00000000000000000000000000000000000000000000000000000000081526004016116689061348e565b60405180910390fd5b80600560008573ffffffffffffffffffffffffffffffffffffffff1673ffffffffffffffffffffffffffffffffffffffff16815260200190815260200160002060008473ffffffffffffffffffffffffffffffffffffffff1673ffffffffffffffffffffffffffffffffffffffff16815260200190815260200160002060006101000a81548160ff0219169083151502179055508173ffffffffffffffffffffffffffffffffffffffff168373ffffffffffffffffffffffffffffffffffffffff167f17307eab39ab6107e8899845ad3d59bd9653f200f220920489ca2b5937696c31836040516117629190612706565b60405180910390a3505050565b61177a848484611257565b61178684848484611b57565b6117c5576040517f08c379a00000000000000000000000000000000000000000000000000000000081526004016117bc90613520565b60405180910390fd5b50505050565b60606117d6826110b6565b60006006600084815260200190815260200160002080546117f690612d2e565b80601f016020809104026020016040519081016040528092919081815260200182805461182290612d2e565b801561186f5780601f106118445761010080835404028352916020019161186f565b820191906000526020600020905b81548152906001019060200180831161185257829003601f168201915b505050505090506000611880611cee565b90506000815114156118965781925050506118d9565b6000825111156118cb5780826040516020016118b392919061357c565b604051602081830303815290604052925050506118d9565b6118d484611d05565b925050505b919050565b6118f8828260405180602001604052806000815250611d6d565b5050565b61190582611a52565b611944576040517f08c379a000000000000000000000000000000000000000000000000000000000815260040161193b90613612565b60405180910390fd5b8060066000848152602001908152602001600020908051906020019061196b9291906125af565b505050565b60007f80ac58cd000000000000000000000000000000000000000000000000000000007bffffffffffffffffffffffffffffffffffffffffffffffffffffffff1916827bffffffffffffffffffffffffffffffffffffffffffffffffffffffff19161480611a3b57507f5b5e139f000000000000000000000000000000000000000000000000000000007bffffffffffffffffffffffffffffffffffffffffffffffffffffffff1916827bffffffffffffffffffffffffffffffffffffffffffffffffffffffff1916145b80611a4b5750611a4a82611dc8565b5b9050919050565b60008073ffffffffffffffffffffffffffffffffffffffff166002600084815260200190815260200160002060009054906101000a900473ffffffffffffffffffffffffffffffffffffffff1673ffffffffffffffffffffffffffffffffffffffff1614159050919050565b611aea7ffd40c562f2586608962db8397f43313d3f0226b999c886710504b21443877bf960001b611039565b611b167ff40c807fb3597bac5a5210af72d41a1054ca0ab2780fd0d4c335630e71f234e360001b611039565b611b427f2cd62968617e3fc340f0639216f55df4f7eb899dae791f9806743ac609230fcd60001b611039565b611b4d838383611e32565b505050565b505050565b6000611b788473ffffffffffffffffffffffffffffffffffffffff16611f46565b15611ce1578373ffffffffffffffffffffffffffffffffffffffff1663150b7a02611ba1611101565b8786866040518563ffffffff1660e01b8152600401611bc39493929190613687565b602060405180830381600087803b158015611bdd57600080fd5b505af1925050508015611c0e57506040513d601f19601f82011682018060405250810190611c0b91906136e8565b60015b611c91573d8060008114611c3e576040519150601f19603f3d011682016040523d82523d6000602084013e611c43565b606091505b50600081511415611c89576040517f08c379a0000000000000000000000000000000000000000000000000000000008152600401611c8090613520565b60405180910390fd5b805181602001fd5b63150b7a0260e01b7bffffffffffffffffffffffffffffffffffffffffffffffffffffffff1916817bffffffffffffffffffffffffffffffffffffffffffffffffffffffff191614915050611ce6565b600190505b949350505050565b606060405180602001604052806000815250905090565b6060611d10826110b6565b6000611d1a611cee565b90506000815111611d3a5760405180602001604052806000815250611d65565b80611d4484611f69565b604051602001611d5592919061357c565b6040516020818303038152906040525b915050919050565b611d7783836120ca565b611d846000848484611b57565b611dc3576040517f08c379a0000000000000000000000000000000000000000000000000000000008152600401611dba90613520565b60405180910390fd5b505050565b60007f01ffc9a7000000000000000000000000000000000000000000000000000000007bffffffffffffffffffffffffffffffffffffffffffffffffffffffff1916827bffffffffffffffffffffffffffffffffffffffffffffffffffffffff1916149050919050565b611e3d8383836122a4565b600073ffffffffffffffffffffffffffffffffffffffff168373ffffffffffffffffffffffffffffffffffffffff161415611e8057611e7b816122a9565b611ebf565b8173ffffffffffffffffffffffffffffffffffffffff168373ffffffffffffffffffffffffffffffffffffffff1614611ebe57611ebd83826122f2565b5b5b600073ffffffffffffffffffffffffffffffffffffffff168273ffffffffffffffffffffffffffffffffffffffff161415611f0257611efd8161245f565b611f41565b8273ffffffffffffffffffffffffffffffffffffffff168273ffffffffffffffffffffffffffffffffffffffff1614611f4057611f3f8282612530565b5b5b505050565b6000808273ffffffffffffffffffffffffffffffffffffffff163b119050919050565b60606000821415611fb1576040518060400160405280600181526020017f300000000000000000000000000000000000000000000000000000000000000081525090506120c5565b600082905060005b60008214611fe3578080611fcc90613715565b915050600a82611fdc919061378d565b9150611fb9565b60008167ffffffffffffffff811115611fff57611ffe612a27565b5b6040519080825280601f01601f1916602001820160405280156120315781602001600182028036833780820191505090505b5090505b600085146120be5760018261204a919061334c565b9150600a8561205991906137be565b60306120659190613380565b60f81b81838151811061207b5761207a61303a565b5b60200101907effffffffffffffffffffffffffffffffffffffffffffffffffffffffffffff1916908160001a905350600a856120b7919061378d565b9450612035565b8093505050505b919050565b600073ffffffffffffffffffffffffffffffffffffffff168273ffffffffffffffffffffffffffffffffffffffff16141561213a576040517f08c379a00000000000000000000000000000000000000000000000000000000081526004016121319061383b565b60405180910390fd5b61214381611a52565b15612183576040517f08c379a000000000000000000000000000000000000000000000000000000000815260040161217a906138a7565b60405180910390fd5b61218f60008383611abe565b6001600360008473ffffffffffffffffffffffffffffffffffffffff1673ffffffffffffffffffffffffffffffffffffffff16815260200190815260200160002060008282546121df9190613380565b92505081905550816002600083815260200190815260200160002060006101000a81548173ffffffffffffffffffffffffffffffffffffffff021916908373ffffffffffffffffffffffffffffffffffffffff160217905550808273ffffffffffffffffffffffffffffffffffffffff16600073ffffffffffffffffffffffffffffffffffffffff167fddf252ad1be2c89b69c2b068fc378daa952ba7f163c4a11628f55a4df523b3ef60405160405180910390a46122a060008383611b52565b5050565b505050565b600980549050600a600083815260200190815260200160002081905550600981908060018154018082558091505060019003906000526020600020016000909190919091505550565b600060016122ff846109f6565b612309919061334c565b90506000600860008481526020019081526020016000205490508181146123ee576000600760008673ffffffffffffffffffffffffffffffffffffffff1673ffffffffffffffffffffffffffffffffffffffff168152602001908152602001600020600084815260200190815260200160002054905080600760008773ffffffffffffffffffffffffffffffffffffffff1673ffffffffffffffffffffffffffffffffffffffff168152602001908152602001600020600084815260200190815260200160002081905550816008600083815260200190815260200160002081905550505b6008600084815260200190815260200160002060009055600760008573ffffffffffffffffffffffffffffffffffffffff1673ffffffffffffffffffffffffffffffffffffffff16815260200190815260200160002060008381526020019081526020016000206000905550505050565b60006001600980549050612473919061334c565b90506000600a60008481526020019081526020016000205490506000600983815481106124a3576124a261303a565b5b9060005260206000200154905080600983815481106124c5576124c461303a565b5b906000526020600020018190555081600a600083815260200190815260200160002081905550600a6000858152602001908152602001600020600090556009805480612514576125136138c7565b5b6001900381819060005260206000200160009055905550505050565b600061253b836109f6565b905081600760008573ffffffffffffffffffffffffffffffffffffffff1673ffffffffffffffffffffffffffffffffffffffff168152602001908152602001600020600083815260200190815260200160002081905550806008600084815260200190815260200160002081905550505050565b8280546125bb90612d2e565b90600052602060002090601f0160209004810192826125dd5760008555612624565b82601f106125f657805160ff1916838001178555612624565b82800160010185558215612624579182015b82811115612623578251825591602001919060010190612608565b5b5090506126319190612635565b5090565b5b8082111561264e576000816000905550600101612636565b5090565b6000604051905090565b600080fd5b600080fd5b60007fffffffff0000000000000000000000000000000000000000000000000000000082169050919050565b61269b81612666565b81146126a657600080fd5b50565b6000813590506126b881612692565b92915050565b6000602082840312156126d4576126d361265c565b5b60006126e2848285016126a9565b91505092915050565b60008115159050919050565b612700816126eb565b82525050565b600060208201905061271b60008301846126f7565b92915050565b600081519050919050565b600082825260208201905092915050565b60005b8381101561275b578082015181840152602081019050612740565b8381111561276a576000848401525b50505050565b6000601f19601f8301169050919050565b600061278c82612721565b612796818561272c565b93506127a681856020860161273d565b6127af81612770565b840191505092915050565b600060208201905081810360008301526127d48184612781565b905092915050565b6000819050919050565b6127ef816127dc565b81146127fa57600080fd5b50565b60008135905061280c816127e6565b92915050565b6000602082840312156128285761282761265c565b5b6000612836848285016127fd565b91505092915050565b600073ffffffffffffffffffffffffffffffffffffffff82169050919050565b600061286a8261283f565b9050919050565b61287a8161285f565b82525050565b60006020820190506128956000830184612871565b92915050565b6128a48161285f565b81146128af57600080fd5b50565b6000813590506128c18161289b565b92915050565b600080604083850312156128de576128dd61265c565b5b60006128ec858286016128b2565b92505060206128fd858286016127fd565b9150509250929050565b612910816127dc565b82525050565b600060208201905061292b6000830184612907565b92915050565b60008060006060848603121561294a5761294961265c565b5b6000612958868287016128b2565b9350506020612969868287016128b2565b925050604061297a868287016127fd565b9150509250925092565b60006020828403121561299a5761299961265c565b5b60006129a8848285016128b2565b91505092915050565b6129ba816126eb565b81146129c557600080fd5b50565b6000813590506129d7816129b1565b92915050565b600080604083850312156129f4576129f361265c565b5b6000612a02858286016128b2565b9250506020612a13858286016129c8565b9150509250929050565b600080fd5b600080fd5b7f4e487b7100000000000000000000000000000000000000000000000000000000600052604160045260246000fd5b612a5f82612770565b810181811067ffffffffffffffff82111715612a7e57612a7d612a27565b5b80604052505050565b6000612a91612652565b9050612a9d8282612a56565b919050565b600067ffffffffffffffff821115612abd57612abc612a27565b5b612ac682612770565b9050602081019050919050565b82818337600083830152505050565b6000612af5612af084612aa2565b612a87565b905082815260208101848484011115612b1157612b10612a22565b5b612b1c848285612ad3565b509392505050565b600082601f830112612b3957612b38612a1d565b5b8135612b49848260208601612ae2565b91505092915050565b60008060008060808587031215612b6c57612b6b61265c565b5b6000612b7a878288016128b2565b9450506020612b8b878288016128b2565b9350506040612b9c878288016127fd565b925050606085013567ffffffffffffffff811115612bbd57612bbc612661565b5b612bc987828801612b24565b91505092959194509250565b600067ffffffffffffffff821115612bf057612bef612a27565b5b612bf982612770565b9050602081019050919050565b6000612c19612c1484612bd5565b612a87565b905082815260208101848484011115612c3557612c34612a22565b5b612c40848285612ad3565b509392505050565b600082601f830112612c5d57612c5c612a1d565b5b8135612c6d848260208601612c06565b91505092915050565b600060208284031215612c8c57612c8b61265c565b5b600082013567ffffffffffffffff811115612caa57612ca9612661565b5b612cb684828501612c48565b91505092915050565b60008060408385031215612cd657612cd561265c565b5b6000612ce4858286016128b2565b9250506020612cf5858286016128b2565b9150509250929050565b7f4e487b7100000000000000000000000000000000000000000000000000000000600052602260045260246000fd5b60006002820490506001821680612d4657607f821691505b60208210811415612d5a57612d59612cff565b5b50919050565b7f4552433732313a20617070726f76616c20746f2063757272656e74206f776e6560008201527f7200000000000000000000000000000000000000000000000000000000000000602082015250565b6000612dbc60218361272c565b9150612dc782612d60565b604082019050919050565b60006020820190508181036000830152612deb81612daf565b9050919050565b7f4552433732313a20617070726f76652063616c6c6572206973206e6f7420746f60008201527f6b656e206f776e6572206e6f7220617070726f76656420666f7220616c6c0000602082015250565b6000612e4e603e8361272c565b9150612e5982612df2565b604082019050919050565b60006020820190508181036000830152612e7d81612e41565b9050919050565b7f4552433732313a2063616c6c6572206973206e6f7420746f6b656e206f776e6560008201527f72206e6f7220617070726f766564000000000000000000000000000000000000602082015250565b6000612ee0602e8361272c565b9150612eeb82612e84565b604082019050919050565b60006020820190508181036000830152612f0f81612ed3565b9050919050565b7f455243373231456e756d657261626c653a206f776e657220696e646578206f7560008201527f74206f6620626f756e6473000000000000000000000000000000000000000000602082015250565b6000612f72602b8361272c565b9150612f7d82612f16565b604082019050919050565b60006020820190508181036000830152612fa181612f65565b9050919050565b7f455243373231456e756d657261626c653a20676c6f62616c20696e646578206f60008201527f7574206f6620626f756e64730000000000000000000000000000000000000000602082015250565b6000613004602c8361272c565b915061300f82612fa8565b604082019050919050565b6000602082019050818103600083015261303381612ff7565b9050919050565b7f4e487b7100000000000000000000000000000000000000000000000000000000600052603260045260246000fd5b7f4552433732313a20696e76616c696420746f6b656e2049440000000000000000600082015250565b600061309f60188361272c565b91506130aa82613069565b602082019050919050565b600060208201905081810360008301526130ce81613092565b9050919050565b7f4552433732313a2061646472657373207a65726f206973206e6f74206120766160008201527f6c6964206f776e65720000000000000000000000000000000000000000000000602082015250565b600061313160298361272c565b915061313c826130d5565b604082019050919050565b6000602082019050818103600083015261316081613124565b9050919050565b7f4f776e61626c653a206e6577206f776e657220697320746865207a65726f206160008201527f6464726573730000000000000000000000000000000000000000000000000000602082015250565b60006131c360268361272c565b91506131ce82613167565b604082019050919050565b600060208201905081810360008301526131f2816131b6565b9050919050565b7f4552433732313a207472616e736665722066726f6d20696e636f72726563742060008201527f6f776e6572000000000000000000000000000000000000000000000000000000602082015250565b600061325560258361272c565b9150613260826131f9565b604082019050919050565b6000602082019050818103600083015261328481613248565b9050919050565b7f4552433732313a207472616e7366657220746f20746865207a65726f2061646460008201527f7265737300000000000000000000000000000000000000000000000000000000602082015250565b60006132e760248361272c565b91506132f28261328b565b604082019050919050565b60006020820190508181036000830152613316816132da565b9050919050565b7f4e487b7100000000000000000000000000000000000000000000000000000000600052601160045260246000fd5b6000613357826127dc565b9150613362836127dc565b9250828210156133755761337461331d565b5b828203905092915050565b600061338b826127dc565b9150613396836127dc565b9250827fffffffffffffffffffffffffffffffffffffffffffffffffffffffffffffffff038211156133cb576133ca61331d565b5b828201905092915050565b7f4f776e61626c653a2063616c6c6572206973206e6f7420746865206f776e6572600082015250565b600061340c60208361272c565b9150613417826133d6565b602082019050919050565b6000602082019050818103600083015261343b816133ff565b9050919050565b7f4552433732313a20617070726f766520746f2063616c6c657200000000000000600082015250565b600061347860198361272c565b915061348382613442565b602082019050919050565b600060208201905081810360008301526134a78161346b565b9050919050565b7f4552433732313a207472616e7366657220746f206e6f6e20455243373231526560008201527f63656976657220696d706c656d656e7465720000000000000000000000000000602082015250565b600061350a60328361272c565b9150613515826134ae565b604082019050919050565b60006020820190508181036000830152613539816134fd565b9050919050565b600081905092915050565b600061355682612721565b6135608185613540565b935061357081856020860161273d565b80840191505092915050565b6000613588828561354b565b9150613594828461354b565b91508190509392505050565b7f45524337323155524953746f726167653a2055524920736574206f66206e6f6e60008201527f6578697374656e7420746f6b656e000000000000000000000000000000000000602082015250565b60006135fc602e8361272c565b9150613607826135a0565b604082019050919050565b6000602082019050818103600083015261362b816135ef565b9050919050565b600081519050919050565b600082825260208201905092915050565b600061365982613632565b613663818561363d565b935061367381856020860161273d565b61367c81612770565b840191505092915050565b600060808201905061369c6000830187612871565b6136a96020830186612871565b6136b66040830185612907565b81810360608301526136c8818461364e565b905095945050505050565b6000815190506136e281612692565b92915050565b6000602082840312156136fe576136fd61265c565b5b600061370c848285016136d3565b91505092915050565b6000613720826127dc565b91507fffffffffffffffffffffffffffffffffffffffffffffffffffffffffffffffff8214156137535761375261331d565b5b600182019050919050565b7f4e487b7100000000000000000000000000000000000000000000000000000000600052601260045260246000fd5b6000613798826127dc565b91506137a3836127dc565b9250826137b3576137b261375e565b5b828204905092915050565b60006137c9826127dc565b91506137d4836127dc565b9250826137e4576137e361375e565b5b828206905092915050565b7f4552433732313a206d696e7420746f20746865207a65726f2061646472657373600082015250565b600061382560208361272c565b9150613830826137ef565b602082019050919050565b6000602082019050818103600083015261385481613818565b9050919050565b7f4552433732313a20746f6b656e20616c7265616479206d696e74656400000000600082015250565b6000613891601c8361272c565b915061389c8261385b565b602082019050919050565b600060208201905081810360008301526138c081613884565b9050919050565b7f4e487b7100000000000000000000000000000000000000000000000000000000600052603160045260246000fdfea264697066735822122062ebad65c52652eea76b4671ba0e85f36d6edf0f07032b7a02f7d4c03184ec9764736f6c63430008080033a264697066735822122007d95386de3799947554992fa182c195a1296d10ee86483ac20b0d10aa917e6764736f6c63430008080033",
  "linkReferences": {},
  "deployedLinkReferences": {}
}