{
  "_format": "hh-sol-artifact-1",
  "contractName": "NftMarketplace",
  "sourceName": "contracts/NftMarketplace.sol",
  "abi": [
    {
      "inputs": [
        {
          "internalType": "address",
          "name": "nftAddress",
          "type": "address"
        },
        {
          "internalType": "uint256",
          "name": "tokenId",
          "type": "uint256"
        }
      ],
      "name": "AlreadyListed",
      "type": "error"
    },
    {
      "inputs": [],
      "name": "NoProceeds",
      "type": "error"
    },
    {
      "inputs": [],
      "name": "NotApprovedForMarketplace",
      "type": "error"
    },
    {
      "inputs": [
        {
          "internalType": "address",
          "name": "nftAddress",
          "type": "address"
        },
        {
          "internalType": "uint256",
          "name": "tokenId",
          "type": "uint256"
        }
      ],
      "name": "NotListed",
      "type": "error"
    },
    {
      "inputs": [],
      "name": "NotOwner",
      "type": "error"
    },
    {
      "inputs": [],
      "name": "PriceMustBeAboveZero",
      "type": "error"
    },
    {
      "inputs": [
        {
          "internalType": "address",
          "name": "nftAddress",
          "type": "address"
        },
        {
          "internalType": "uint256",
          "name": "tokenId",
          "type": "uint256"
        },
        {
          "internalType": "uint256",
          "name": "price",
          "type": "uint256"
        }
      ],
      "name": "PriceNotMet",
      "type": "error"
    },
    {
      "anonymous": false,
      "inputs": [
        {
          "indexed": true,
          "internalType": "address",
          "name": "buyer",
          "type": "address"
        },
        {
          "indexed": true,
          "internalType": "address",
          "name": "nftAddress",
          "type": "address"
        },
        {
          "indexed": true,
          "internalType": "uint256",
          "name": "tokenId",
          "type": "uint256"
        },
        {
          "indexed": false,
          "internalType": "uint256",
          "name": "price",
          "type": "uint256"
        }
      ],
      "name": "ItemBought",
      "type": "event"
    },
    {
      "anonymous": false,
      "inputs": [
        {
          "indexed": true,
          "internalType": "address",
          "name": "seller",
          "type": "address"
        },
        {
          "indexed": true,
          "internalType": "address",
          "name": "nftAddress",
          "type": "address"
        },
        {
          "indexed": true,
          "internalType": "uint256",
          "name": "tokenId",
          "type": "uint256"
        }
      ],
      "name": "ItemCanceled",
      "type": "event"
    },
    {
      "anonymous": false,
      "inputs": [
        {
          "indexed": true,
          "internalType": "address",
          "name": "seller",
          "type": "address"
        },
        {
          "indexed": true,
          "internalType": "address",
          "name": "nftAddress",
          "type": "address"
        },
        {
          "indexed": true,
          "internalType": "uint256",
          "name": "tokenId",
          "type": "uint256"
        },
        {
          "indexed": false,
          "internalType": "uint256",
          "name": "price",
          "type": "uint256"
        }
      ],
      "name": "ItemListed",
      "type": "event"
    },
    {
      "anonymous": false,
      "inputs": [
        {
          "indexed": true,
          "internalType": "address",
          "name": "previousOwner",
          "type": "address"
        },
        {
          "indexed": true,
          "internalType": "address",
          "name": "newOwner",
          "type": "address"
        }
      ],
      "name": "OwnershipTransferred",
      "type": "event"
    },
    {
      "inputs": [
        {
          "internalType": "address",
          "name": "nftAddress",
          "type": "address"
        },
        {
          "internalType": "uint256",
          "name": "tokenId",
          "type": "uint256"
        }
      ],
      "name": "buyItem",
      "outputs": [],
      "stateMutability": "payable",
      "type": "function"
    },
    {
      "inputs": [
        {
          "internalType": "address",
          "name": "nftAddress",
          "type": "address"
        },
        {
          "internalType": "uint256",
          "name": "tokenId",
          "type": "uint256"
        }
      ],
      "name": "cancelListing",
      "outputs": [],
      "stateMutability": "nonpayable",
      "type": "function"
    },
    {
      "inputs": [
        {
          "internalType": "address",
          "name": "nftAddress",
          "type": "address"
        },
        {
          "internalType": "uint256",
          "name": "tokenId",
          "type": "uint256"
        }
      ],
      "name": "getListing",
      "outputs": [
        {
          "components": [
            {
              "internalType": "uint256",
              "name": "price",
              "type": "uint256"
            },
            {
              "internalType": "address",
              "name": "seller",
              "type": "address"
            }
          ],
          "internalType": "struct NftMarketplace.Listing",
          "name": "",
          "type": "tuple"
        }
      ],
      "stateMutability": "view",
      "type": "function"
    },
    {
      "inputs": [],
      "name": "getOwnerProceeds",
      "outputs": [
        {
          "internalType": "uint256",
          "name": "",
          "type": "uint256"
        }
      ],
      "stateMutability": "view",
      "type": "function"
    },
    {
      "inputs": [
        {
          "internalType": "address",
          "name": "seller",
          "type": "address"
        }
      ],
      "name": "getProceeds",
      "outputs": [
        {
          "internalType": "uint256",
          "name": "",
          "type": "uint256"
        }
      ],
      "stateMutability": "view",
      "type": "function"
    },
    {
      "inputs": [
        {
          "internalType": "address",
          "name": "nftAddress",
          "type": "address"
        },
        {
          "internalType": "uint256",
          "name": "tokenId",
          "type": "uint256"
        },
        {
          "internalType": "uint256",
          "name": "price",
          "type": "uint256"
        }
      ],
      "name": "listItem",
      "outputs": [],
      "stateMutability": "nonpayable",
      "type": "function"
    },
    {
      "inputs": [],
      "name": "owner",
      "outputs": [
        {
          "internalType": "address",
          "name": "",
          "type": "address"
        }
      ],
      "stateMutability": "view",
      "type": "function"
    },
    {
      "inputs": [],
      "name": "renounceOwnership",
      "outputs": [],
      "stateMutability": "nonpayable",
      "type": "function"
    },
    {
      "inputs": [
        {
          "internalType": "address",
          "name": "newOwner",
          "type": "address"
        }
      ],
      "name": "transferOwnership",
      "outputs": [],
      "stateMutability": "nonpayable",
      "type": "function"
    },
    {
      "inputs": [
        {
          "internalType": "address",
          "name": "nftAddress",
          "type": "address"
        },
        {
          "internalType": "uint256",
          "name": "tokenId",
          "type": "uint256"
        },
        {
          "internalType": "uint256",
          "name": "newPrice",
          "type": "uint256"
        }
      ],
      "name": "updateListing",
      "outputs": [],
      "stateMutability": "nonpayable",
      "type": "function"
    },
    {
      "inputs": [],
      "name": "withdrawOwnerProceeds",
      "outputs": [],
      "stateMutability": "nonpayable",
      "type": "function"
    },
    {
      "inputs": [],
      "name": "withdrawProceeds",
      "outputs": [],
      "stateMutability": "nonpayable",
      "type": "function"
    }
  ],
  "bytecode": "0x60806040523480156200001157600080fd5b5060016000819055506200003a6200002e6200004060201b60201c565b6200004860201b60201c565b6200010e565b600033905090565b6000600160009054906101000a900473ffffffffffffffffffffffffffffffffffffffff16905081600160006101000a81548173ffffffffffffffffffffffffffffffffffffffff021916908373ffffffffffffffffffffffffffffffffffffffff1602179055508173ffffffffffffffffffffffffffffffffffffffff168173ffffffffffffffffffffffffffffffffffffffff167f8be0079c531659141344cd1fd0a4f28419497f9722a3daafe3b4186f6b6457e060405160405180910390a35050565b6138fe806200011e6000396000f3fe6080604052600436106100a75760003560e01c80639038e693116100645780639038e693146101a85780639f37092a146101bf578063b2ddee06146101db578063f2fde38b14610204578063f772adf11461022d578063fe62ff9414610256576100a7565b806330cfeda9146100ac5780633a9aee37146100e9578063715018a61461010057806388700d1c1461011757806389bfd38f146101545780638da5cb5b1461017d575b600080fd5b3480156100b857600080fd5b506100d360048036038101906100ce91906132f7565b610281565b6040516100e0919061333d565b60405180910390f35b3480156100f557600080fd5b506100fe61034e565b005b34801561010c57600080fd5b50610115610600565b005b34801561012357600080fd5b5061013e60048036038101906101399190613384565b610614565b60405161014b9190613411565b60405180910390f35b34801561016057600080fd5b5061017b6004803603810190610176919061342c565b610763565b005b34801561018957600080fd5b50610192611237565b60405161019f919061348e565b60405180910390f35b3480156101b457600080fd5b506101bd611261565b005b6101d960048036038101906101d49190613384565b611694565b005b3480156101e757600080fd5b5061020260048036038101906101fd9190613384565b611fc9565b005b34801561021057600080fd5b5061022b600480360381019061022691906132f7565b6126d8565b005b34801561023957600080fd5b50610254600480360381019061024f919061342c565b61275c565b005b34801561026257600080fd5b5061026b612fe5565b604051610278919061333d565b60405180910390f35b60006102af7f3e09a88f5ef5556594ddfd350273e6752725af860c04cc6838ffd8465db918f260001b61307b565b6102db7fc45b71c0b18dfdc909e2949265c2a0ea28f990c4d2e8703e5b29d91592d8445060001b61307b565b6103077faf0824078944cc3eac52df0c480dab1bb5d90f19c4566a477d69d2f09c4698f360001b61307b565b600460008373ffffffffffffffffffffffffffffffffffffffff1673ffffffffffffffffffffffffffffffffffffffff168152602001908152602001600020549050919050565b61035661307e565b6103827fba5fc3aa7bb9cbb573121c2e3eb2800e85bce8dbb5ecd2f94005bc7ce28099b360001b61307b565b6103ae7fc90583bd8cf780926130592d2daab72bde38ad1ddb58efe77dcf04b1d526133c60001b61307b565b6103da7f731be15bd0750e3895df428bad1c2e45e830b4b62a86c86ed7cce2754744a4ea60001b61307b565b60006103e4611237565b90506104127f8d8b190c0c41421c60e5c1bd41ceb4bb0d81d435fd9f8707accd459244eca24a60001b61307b565b61043e7f4db4b9ea20607a5b4bef8783f6c0c98805f9f971d2c95a1a4018b41b310aeffa60001b61307b565b60008173ffffffffffffffffffffffffffffffffffffffff16600254604051610466906134da565b60006040518083038185875af1925050503d80600081146104a3576040519150601f19603f3d011682016040523d82523d6000602084013e6104a8565b606091505b505090506104d87f6796b2139427fa7c85705d251ae7a0c034d7b2ddbf60043903778f760d15c71b60001b61307b565b6105047f8474202a7d5d8756c67714d8c04a3cea3a3b35fb39340b6571b4a1c562b1feee60001b61307b565b6105307fc0243000d25c861738e33932e32d7e885abc159a06388075d6da189cfb9d2c7c60001b61307b565b80610570576040517f08c379a00000000000000000000000000000000000000000000000000000000081526004016105679061354c565b60405180910390fd5b61059c7fffab0b05eefbe9e4921df02a5206c3af8767ba5a3297ed666f28a460d0e9e9b560001b61307b565b6105c87f45c99b00fb3ba783684f762ede16488026bb7bc29e7622578fb726c2d8da27ae60001b61307b565b6105f47f351ddc14c0da9343439030feb91b1700ecb92471388878c52d6c6bc122d5766160001b61307b565b60006002819055505050565b61060861307e565b61061260006130fc565b565b61061c613264565b6106487f688c68fffad99ecc69c92f8444a65265243fda5462a059b4b392b6655ac4a7be60001b61307b565b6106747f643851d8aad925277fb0c15c87ee6f6a2f315a07196b15703f2e0e187482601260001b61307b565b6106a07f0127cdd6dab6889a7e3b887db1f51a43794d4d3f48e8e8b022654869b68aaadc60001b61307b565b600360008473ffffffffffffffffffffffffffffffffffffffff1673ffffffffffffffffffffffffffffffffffffffff1681526020019081526020016000206000838152602001908152602001600020604051806040016040529081600082015481526020016001820160009054906101000a900473ffffffffffffffffffffffffffffffffffffffff1673ffffffffffffffffffffffffffffffffffffffff1673ffffffffffffffffffffffffffffffffffffffff1681525050905092915050565b8282336107927f575dc17abc1daff2fa16ac5b2cd41dacadbb2663cb936fbde8a67a0c9cdd01d860001b61307b565b6107be7f47155e6dd314dd43782b25e67dbdf5fa3382f046e4a8e235c60f33531bb8329c60001b61307b565b6107ea7f8fd8752cf20e2b848310fabd229177cb500fbb982ed7cdd17c971e221df3b65c60001b61307b565b6000600360008573ffffffffffffffffffffffffffffffffffffffff1673ffffffffffffffffffffffffffffffffffffffff1681526020019081526020016000206000848152602001908152602001600020604051806040016040529081600082015481526020016001820160009054906101000a900473ffffffffffffffffffffffffffffffffffffffff1673ffffffffffffffffffffffffffffffffffffffff1673ffffffffffffffffffffffffffffffffffffffff168152505090506108d57fc05c6d125275ffd0833326efc398a8df3611409964734169207fb9acfc8a4bb160001b61307b565b6109017fc7fc7718e3fef2ba87ba1fc42b658e98368afd406b9fda01c34d5fa0637c37a560001b61307b565b6000816000015111156109a55761093a7f4ce5434f982f6e0a606c49fd7ac8a4a02607c50cf8eb68dbbc29eb6154ee960560001b61307b565b6109667fb6ecf75eb9b53099591d15397314b794d119beaa1b7ec768ddfc4e3e5103f6b960001b61307b565b83836040517f4a5568d500000000000000000000000000000000000000000000000000000000815260040161099c92919061356c565b60405180910390fd5b6109d17f0889f2307b6d27e1d47485f871535f6746155cac47e0ed3e06de20cd610ffdf360001b61307b565b6109fd7fe00c5d4280d3e16a84afa5a1f044cabb9c9f7585f7599a63bce5c7bf0cd29d2d60001b61307b565b868633610a2c7fc8c6755b8f58394d1d6cbefdf41c2f2c310b8338b6732a5f5f891e938b3f489960001b61307b565b610a587f621929847eeaf2ab7db5796f8d568ff1ba39a847a146f65d729034d46ab3e4ca60001b61307b565b610a847f75cd549018548b82d9d1ef0aa6b24353521a4ca3d787004868c71c72b579925d60001b61307b565b6000839050610ab57f988f6afb2afe266523d64fed76aad156cf91b13fe50f31fe675dff1948aeb2d960001b61307b565b610ae17f3506bc4a15fc887d7a7bc8669cdbc4cef7efa6b2aa8a9610b1cdf042ee03b19b60001b61307b565b60008173ffffffffffffffffffffffffffffffffffffffff16636352211e856040518263ffffffff1660e01b8152600401610b1c919061333d565b60206040518083038186803b158015610b3457600080fd5b505afa158015610b48573d6000803e3d6000fd5b505050506040513d601f19601f82011682018060405250810190610b6c91906135aa565b9050610b9a7fdd2bc1877e15bc3f929e0553e4de1683c1566e5fb1a9516b9c3b2240fd3d566f60001b61307b565b610bc67f37cac8d754016fa3b8b131a2fb9d8136f01356006d9b94b459f52467bb5da75960001b61307b565b8073ffffffffffffffffffffffffffffffffffffffff168373ffffffffffffffffffffffffffffffffffffffff1614610c8357610c257f0c996b9c58796c905f6f947710d1933ff6df6bb6faf3c253fd0ceb48ef0e144d60001b61307b565b610c517fff7ea92f5c358c86300fc33d9982f87b6dd58ce55aeca13c78a534b67a75718460001b61307b565b6040517f30cd747100000000000000000000000000000000000000000000000000000000815260040160405180910390fd5b610caf7f6137df791f21cbac86da1fe17a4870cac7dfa3b93e50e7576472210a376a030560001b61307b565b610cdb7fb6f7f1c1dc0d16a1d48cd3cf88424e2b34517c9d6f86d655235d4f06904dd2df60001b61307b565b610d077fa74ddb7f64e8dc59aa9bb4d51a36747b9b6279f5009027bda4620c91a77833e060001b61307b565b610d337f9b94730683b0db5e0ca7e3f321b549418414e6787adf6a53e0c1e7416666d11860001b61307b565b610d5f7f0f40576c43434a400ce9c60edeabc33937dbdda83fd724d578c2ee5ee982caef60001b61307b565b60008a11610df157610d937fb61b39062c599ad98c4586e265c43119ac7e95586b2a9514967ba65052dd8b1960001b61307b565b610dbf7f0707033d60d32fb74be4d9e1cda2c27a91d89b17b29b61298ca0ab0a88a11f1a60001b61307b565b6040517fe1abbfc500000000000000000000000000000000000000000000000000000000815260040160405180910390fd5b610e1d7ff2d9e5b68b8c0e5632529a7a552f80e24f84c1ccaef81ad2e352ada03bb2dcbb60001b61307b565b610e497ff0e2b728a1f69c5548f31146301d01182dec23c4bc694c4d0d4cbc27bd53a9d260001b61307b565b610e757f863b6cddd2443e7605c8d2e06577c679c15f515f24cfa3b9c743a11050cbca9760001b61307b565b60008c9050610ea67f8e8f73745b0c94c9a7b36cf3c60fc9c3458b8c35964afe9388df43d0e655e98160001b61307b565b610ed27f588fb0b21883843d91b4a182df07c02d9f00231e85d939c1ebbb4578c250696060001b61307b565b3073ffffffffffffffffffffffffffffffffffffffff168173ffffffffffffffffffffffffffffffffffffffff1663081812fc8e6040518263ffffffff1660e01b8152600401610f22919061333d565b60206040518083038186803b158015610f3a57600080fd5b505afa158015610f4e573d6000803e3d6000fd5b505050506040513d601f19601f82011682018060405250810190610f7291906135aa565b73ffffffffffffffffffffffffffffffffffffffff161461101757610fb97f383bb74b353495b311fe0695456776c3ae7645ebb9e13811d61d9bc26991dd0860001b61307b565b610fe57f1902d547da3e774247528d418c2828f6e92fac552ada9665407838f9bfc49f5560001b61307b565b6040517f4be3a2c500000000000000000000000000000000000000000000000000000000815260040160405180910390fd5b6110437f97e39864d80c76d2601053d12e91436ce141b9fa7086cd494c605b314cd6943960001b61307b565b61106f7fbd56a8987a1c8291755e8f54102a818f9710bb1c94262eeaa2273521e08f3eb660001b61307b565b61109b7fdbe5e95c92a1ec44a387f35427bff111c61ddeb53150eea28547df1f159783b560001b61307b565b60405180604001604052808c81526020013373ffffffffffffffffffffffffffffffffffffffff16815250600360008f73ffffffffffffffffffffffffffffffffffffffff1673ffffffffffffffffffffffffffffffffffffffff16815260200190815260200160002060008e81526020019081526020016000206000820151816000015560208201518160010160006101000a81548173ffffffffffffffffffffffffffffffffffffffff021916908373ffffffffffffffffffffffffffffffffffffffff1602179055509050506111967ff93ce867acfc3104f1520c9d71985146007f9f2104a0c4d22ef62957221be59360001b61307b565b6111c27f060504044eda359d2d05d68ca969c8aeed9d04fb096e409ac247c52a5d4a138460001b61307b565b8b8d73ffffffffffffffffffffffffffffffffffffffff163373ffffffffffffffffffffffffffffffffffffffff167fd547e933094f12a9159076970143ebe73234e64480317844b0dcb36117116de48e604051611220919061333d565b60405180910390a450505050505050505050505050565b6000600160009054906101000a900473ffffffffffffffffffffffffffffffffffffffff16905090565b61128d7fa90bd4cd3ad600d7e3f2a5a2a49ec4c8e18743c1dd5b4c18696304318922f84260001b61307b565b6112b97fee1d26d629e3d0b70b9f16b44f9a876780d90cc42f2a1c32c29cce94381a4df960001b61307b565b6112e57fae82f3296445dae69c2018abdb2011a338d99893c6300f5de70a4ccf7bad0e2160001b61307b565b6000600460003373ffffffffffffffffffffffffffffffffffffffff1673ffffffffffffffffffffffffffffffffffffffff1681526020019081526020016000205490506113557fce7279b4c6ff5fbb07d242abdc7b4c0181573db78368a77b2921c5a3b9d8a22a60001b61307b565b6113817f12db5bbc82aee22066fbcc6ac76fbb014c96b2d592ab69a7468df3dde7f6959e60001b61307b565b60008111611413576113b57fb4fb59eaae93503bd171eeba1398a84f94ee23138ecc2b290bfbb95c2bac272560001b61307b565b6113e17f4033ec943668e2b80167bf0f42b3856d9da55f44723f4cf628eaa8c58ba57f1e60001b61307b565b6040517fc4d8fa8700000000000000000000000000000000000000000000000000000000815260040160405180910390fd5b61143f7fd6be85d97550fbbe8429388fa9ed6762766d319a095687a0830c670a59570bc460001b61307b565b61146b7fe102cf8fd47784dbd0217c29ad2f0ec2729b2e85bb87dba580f99b34fd22e6c360001b61307b565b6114977fc54ec4956300d3e49a985f88d6b3d589d47a632f3c15500460281aa156b4295460001b61307b565b6000600460003373ffffffffffffffffffffffffffffffffffffffff1673ffffffffffffffffffffffffffffffffffffffff168152602001908152602001600020819055506115087f90de896b0f7c1ffcc60d8a1df1f9b0a9241b1f46ee00580b5c902fcc7924ad5f60001b61307b565b6115347fa7e6f4fb6242dd6af07fe2497c24ad2bbd6c6467e0e6326849b8e304f6a2038f60001b61307b565b60003373ffffffffffffffffffffffffffffffffffffffff168260405161155a906134da565b60006040518083038185875af1925050503d8060008114611597576040519150601f19603f3d011682016040523d82523d6000602084013e61159c565b606091505b505090506115cc7f77b8f10f2a2d6b78ab3fdaa014caf3d2ea4cb78000d0c2a236f26a5a2ba202eb60001b61307b565b6115f87f445c754ca6ef66035fc7339748bce5fcf7566fc830a737dc62edee81812bc37960001b61307b565b6116247fdf5faf83a21dc5610cc9b235b6eb615425cbe51131427b0b31e372d9432ccc1060001b61307b565b80611664576040517f08c379a000000000000000000000000000000000000000000000000000000000815260040161165b9061354c565b60405180910390fd5b6116907fadcca65806f55984b3b41f5a87235acd346de9c4d0698903c83f3219728f3b7c60001b61307b565b5050565b81816116c27f3d137e3cb563c309ff27ba7119af69090211ad4752c6e9c555c6b79402ea779d60001b61307b565b6116ee7fd285ce9d2f8a23ec2f3b0c2b770934258c393f861764015ce31eddc6696dab7a60001b61307b565b61171a7f98d8cad27ffb2855162365aaa017d8925367e272927c9c8b14c160a0f5f0441a60001b61307b565b6000600360008473ffffffffffffffffffffffffffffffffffffffff1673ffffffffffffffffffffffffffffffffffffffff1681526020019081526020016000206000838152602001908152602001600020604051806040016040529081600082015481526020016001820160009054906101000a900473ffffffffffffffffffffffffffffffffffffffff1673ffffffffffffffffffffffffffffffffffffffff1673ffffffffffffffffffffffffffffffffffffffff168152505090506118057fa3b183c3b2a79b266b388dd80bf7291a76fdb01cc96d18ad61c80a38599b5cf760001b61307b565b6118317ff2a33be09754a586866cbde26726cecb80f66ff524942c7b6faa97c2b675a28960001b61307b565b60008160000151116118d4576118697ff430a13b362e6ca57388cdbed35c97bed1333cec8aa9c6dea246589c0a3e024560001b61307b565b6118957f76b68a358f935c2731846090cc49d361b549638f2620763e03ddd728a6330f2760001b61307b565b82826040517f6831488c0000000000000000000000000000000000000000000000000000000081526004016118cb92919061356c565b60405180910390fd5b6119007fad697ea8d2fd02ac81d781ff44cd07b9a9b31ee0aa10d50ee22b98ec3dac0dbf60001b61307b565b61192c7fd94cd7ec52f3eeededdbd35a71dbebac4c802ed0290dc4450aeffa46634a3ee560001b61307b565b60026000541415611972576040517f08c379a000000000000000000000000000000000000000000000000000000000815260040161196990613623565b60405180910390fd5b60026000819055506119a67f2ce99034b0de1f2ed99ffb8d1051fde319f2f60ce3a5025edceb645a75c89f9b60001b61307b565b6119d27f50574002f300b3a488265418e3bcd439c0f35fb0e1469bc9ac51be2dde2aed0460001b61307b565b6119fe7f77430d6545771df72dc82d496f7eddbb56b01363d9e88c3d1a383f4c3c66fd6260001b61307b565b6000600360008773ffffffffffffffffffffffffffffffffffffffff1673ffffffffffffffffffffffffffffffffffffffff1681526020019081526020016000206000868152602001908152602001600020604051806040016040529081600082015481526020016001820160009054906101000a900473ffffffffffffffffffffffffffffffffffffffff1673ffffffffffffffffffffffffffffffffffffffff1673ffffffffffffffffffffffffffffffffffffffff16815250509050611ae97f867d3abba99fdb5baca75d4b6b8ca98e7b3f0507fa277b8b65f3bd12117f23c860001b61307b565b611b157f63d16a6a67e283bc5e6a4357a2b31bcdfd5348a99ed0abd3beef258ca17fccfc60001b61307b565b8060000151341015611bbe57611b4d7f012e96e4a45e2e4155d5931a8cb6c2d61b05602a9ae6f7654334b57c7e5e527160001b61307b565b611b797f94ea835dbd7f96d3f2fada640d47384a7565aed4e38eb4ff03919e44f13e7d2260001b61307b565b858582600001516040517f7c934565000000000000000000000000000000000000000000000000000000008152600401611bb593929190613643565b60405180910390fd5b611bea7f30ebba88b94adefa4b3d72acbf8e11be05a9356bd406cc873b7767c82d6878db60001b61307b565b611c167f6049b754b4b0ba49e7beaa64b60303af8054859fe056c80491a93a07f6ed2d0160001b61307b565b611c427fd2adf8f32ce63c04f554877235f90f0f19af499d2fa9f4f510ae4cf44f68b4e760001b61307b565b6000611c4d346131c2565b9050611c7b7f59e6928dc4cfd61fd2f7af9b84bea8ba6653acc41149a18cac3fe4ce70509bd160001b61307b565b611ca77f0d1a4950854c67f08bd1e7d2e161e000421f6863658ad5daf7c54d9afed460d360001b61307b565b8060026000828254611cb991906136a9565b92505081905550611cec7fcb68fb9197e8bce299d5b6e1cc7673e757b891ef6a3c9b8a91d3af36fb42403660001b61307b565b611d187f18ac5b0ddd46b415152a4d40b258090692ece4fcfc6034a93fc7ed57a92ac90160001b61307b565b8034611d2491906136ff565b60046000846020015173ffffffffffffffffffffffffffffffffffffffff1673ffffffffffffffffffffffffffffffffffffffff1681526020019081526020016000206000828254611d7691906136a9565b92505081905550611da97fde6da4eb300bd1c82b3af61636764a6353fdbd954be246f886e37b47683ebee460001b61307b565b600360008873ffffffffffffffffffffffffffffffffffffffff1673ffffffffffffffffffffffffffffffffffffffff16815260200190815260200160002060008781526020019081526020016000206000808201600090556001820160006101000a81549073ffffffffffffffffffffffffffffffffffffffff02191690555050611e577f074129d208654fd02ae38738f4822bc5f2b7cdb6a35b7be8e28ecb58a91eafda60001b61307b565b611e837f665b143c81ca96158cadb9e80fcd622c1ad9661548e9db788b5b5818d85a303f60001b61307b565b8673ffffffffffffffffffffffffffffffffffffffff166342842e0e836020015133896040518463ffffffff1660e01b8152600401611ec493929190613733565b600060405180830381600087803b158015611ede57600080fd5b505af1158015611ef2573d6000803e3d6000fd5b50505050611f227f952b46d35d0bf202f99d8c04fe084355db31cb192f6181625d35c7c6e7f69b6b60001b61307b565b611f4e7feb25fe3e5f82db6467739cab6135d86a30467b1b2b282f9117bebfb481220e1c60001b61307b565b858773ffffffffffffffffffffffffffffffffffffffff163373ffffffffffffffffffffffffffffffffffffffff167f263223b1dd81e51054a4e6f791d45a4a1ddb4aadcd93a2dfd892615c3fdac1878560000151604051611fb0919061333d565b60405180910390a4505060016000819055505050505050565b818133611ff87fc8c6755b8f58394d1d6cbefdf41c2f2c310b8338b6732a5f5f891e938b3f489960001b61307b565b6120247f621929847eeaf2ab7db5796f8d568ff1ba39a847a146f65d729034d46ab3e4ca60001b61307b565b6120507f75cd549018548b82d9d1ef0aa6b24353521a4ca3d787004868c71c72b579925d60001b61307b565b60008390506120817f988f6afb2afe266523d64fed76aad156cf91b13fe50f31fe675dff1948aeb2d960001b61307b565b6120ad7f3506bc4a15fc887d7a7bc8669cdbc4cef7efa6b2aa8a9610b1cdf042ee03b19b60001b61307b565b60008173ffffffffffffffffffffffffffffffffffffffff16636352211e856040518263ffffffff1660e01b81526004016120e8919061333d565b60206040518083038186803b15801561210057600080fd5b505afa158015612114573d6000803e3d6000fd5b505050506040513d601f19601f8201168201806040525081019061213891906135aa565b90506121667fdd2bc1877e15bc3f929e0553e4de1683c1566e5fb1a9516b9c3b2240fd3d566f60001b61307b565b6121927f37cac8d754016fa3b8b131a2fb9d8136f01356006d9b94b459f52467bb5da75960001b61307b565b8073ffffffffffffffffffffffffffffffffffffffff168373ffffffffffffffffffffffffffffffffffffffff161461224f576121f17f0c996b9c58796c905f6f947710d1933ff6df6bb6faf3c253fd0ceb48ef0e144d60001b61307b565b61221d7fff7ea92f5c358c86300fc33d9982f87b6dd58ce55aeca13c78a534b67a75718460001b61307b565b6040517f30cd747100000000000000000000000000000000000000000000000000000000815260040160405180910390fd5b61227b7f6137df791f21cbac86da1fe17a4870cac7dfa3b93e50e7576472210a376a030560001b61307b565b6122a77fb6f7f1c1dc0d16a1d48cd3cf88424e2b34517c9d6f86d655235d4f06904dd2df60001b61307b565b86866122d57f3d137e3cb563c309ff27ba7119af69090211ad4752c6e9c555c6b79402ea779d60001b61307b565b6123017fd285ce9d2f8a23ec2f3b0c2b770934258c393f861764015ce31eddc6696dab7a60001b61307b565b61232d7f98d8cad27ffb2855162365aaa017d8925367e272927c9c8b14c160a0f5f0441a60001b61307b565b6000600360008473ffffffffffffffffffffffffffffffffffffffff1673ffffffffffffffffffffffffffffffffffffffff1681526020019081526020016000206000838152602001908152602001600020604051806040016040529081600082015481526020016001820160009054906101000a900473ffffffffffffffffffffffffffffffffffffffff1673ffffffffffffffffffffffffffffffffffffffff1673ffffffffffffffffffffffffffffffffffffffff168152505090506124187fa3b183c3b2a79b266b388dd80bf7291a76fdb01cc96d18ad61c80a38599b5cf760001b61307b565b6124447ff2a33be09754a586866cbde26726cecb80f66ff524942c7b6faa97c2b675a28960001b61307b565b60008160000151116124e75761247c7ff430a13b362e6ca57388cdbed35c97bed1333cec8aa9c6dea246589c0a3e024560001b61307b565b6124a87f76b68a358f935c2731846090cc49d361b549638f2620763e03ddd728a6330f2760001b61307b565b82826040517f6831488c0000000000000000000000000000000000000000000000000000000081526004016124de92919061356c565b60405180910390fd5b6125137fad697ea8d2fd02ac81d781ff44cd07b9a9b31ee0aa10d50ee22b98ec3dac0dbf60001b61307b565b61253f7fd94cd7ec52f3eeededdbd35a71dbebac4c802ed0290dc4450aeffa46634a3ee560001b61307b565b61256b7f628f8acd46e989bf3d1776a7b9dfc663e30cf2810dc3204aa212be88dad8bdf360001b61307b565b6125977f20b043d368dee1f8f728b5c371a18301095a132729bf1444c09be8cacf745d2f60001b61307b565b600360008b73ffffffffffffffffffffffffffffffffffffffff1673ffffffffffffffffffffffffffffffffffffffff16815260200190815260200160002060008a81526020019081526020016000206000808201600090556001820160006101000a81549073ffffffffffffffffffffffffffffffffffffffff021916905550506126457f0e30f6b87cbba3c96c65ae3494267c608ca3aec04c6287931a37b05c106c75da60001b61307b565b6126717f34d5df8919fd69072b33f29cbb8b3d28bd05a3c948812d87c5794b207d93bb4360001b61307b565b888a73ffffffffffffffffffffffffffffffffffffffff163373ffffffffffffffffffffffffffffffffffffffff167f9ba1a3cb55ce8d63d072a886f94d2a744f50cddf82128e897d0661f5ec62315860405160405180910390a450505050505050505050565b6126e061307e565b600073ffffffffffffffffffffffffffffffffffffffff168173ffffffffffffffffffffffffffffffffffffffff161415612750576040517f08c379a0000000000000000000000000000000000000000000000000000000008152600401612747906137dc565b60405180910390fd5b612759816130fc565b50565b828261278a7f3d137e3cb563c309ff27ba7119af69090211ad4752c6e9c555c6b79402ea779d60001b61307b565b6127b67fd285ce9d2f8a23ec2f3b0c2b770934258c393f861764015ce31eddc6696dab7a60001b61307b565b6127e27f98d8cad27ffb2855162365aaa017d8925367e272927c9c8b14c160a0f5f0441a60001b61307b565b6000600360008473ffffffffffffffffffffffffffffffffffffffff1673ffffffffffffffffffffffffffffffffffffffff1681526020019081526020016000206000838152602001908152602001600020604051806040016040529081600082015481526020016001820160009054906101000a900473ffffffffffffffffffffffffffffffffffffffff1673ffffffffffffffffffffffffffffffffffffffff1673ffffffffffffffffffffffffffffffffffffffff168152505090506128cd7fa3b183c3b2a79b266b388dd80bf7291a76fdb01cc96d18ad61c80a38599b5cf760001b61307b565b6128f97ff2a33be09754a586866cbde26726cecb80f66ff524942c7b6faa97c2b675a28960001b61307b565b600081600001511161299c576129317ff430a13b362e6ca57388cdbed35c97bed1333cec8aa9c6dea246589c0a3e024560001b61307b565b61295d7f76b68a358f935c2731846090cc49d361b549638f2620763e03ddd728a6330f2760001b61307b565b82826040517f6831488c00000000000000000000000000000000000000000000000000000000815260040161299392919061356c565b60405180910390fd5b6129c87fad697ea8d2fd02ac81d781ff44cd07b9a9b31ee0aa10d50ee22b98ec3dac0dbf60001b61307b565b6129f47fd94cd7ec52f3eeededdbd35a71dbebac4c802ed0290dc4450aeffa46634a3ee560001b61307b565b60026000541415612a3a576040517f08c379a0000000000000000000000000000000000000000000000000000000008152600401612a3190613623565b60405180910390fd5b6002600081905550858533612a717fc8c6755b8f58394d1d6cbefdf41c2f2c310b8338b6732a5f5f891e938b3f489960001b61307b565b612a9d7f621929847eeaf2ab7db5796f8d568ff1ba39a847a146f65d729034d46ab3e4ca60001b61307b565b612ac97f75cd549018548b82d9d1ef0aa6b24353521a4ca3d787004868c71c72b579925d60001b61307b565b6000839050612afa7f988f6afb2afe266523d64fed76aad156cf91b13fe50f31fe675dff1948aeb2d960001b61307b565b612b267f3506bc4a15fc887d7a7bc8669cdbc4cef7efa6b2aa8a9610b1cdf042ee03b19b60001b61307b565b60008173ffffffffffffffffffffffffffffffffffffffff16636352211e856040518263ffffffff1660e01b8152600401612b61919061333d565b60206040518083038186803b158015612b7957600080fd5b505afa158015612b8d573d6000803e3d6000fd5b505050506040513d601f19601f82011682018060405250810190612bb191906135aa565b9050612bdf7fdd2bc1877e15bc3f929e0553e4de1683c1566e5fb1a9516b9c3b2240fd3d566f60001b61307b565b612c0b7f37cac8d754016fa3b8b131a2fb9d8136f01356006d9b94b459f52467bb5da75960001b61307b565b8073ffffffffffffffffffffffffffffffffffffffff168373ffffffffffffffffffffffffffffffffffffffff1614612cc857612c6a7f0c996b9c58796c905f6f947710d1933ff6df6bb6faf3c253fd0ceb48ef0e144d60001b61307b565b612c967fff7ea92f5c358c86300fc33d9982f87b6dd58ce55aeca13c78a534b67a75718460001b61307b565b6040517f30cd747100000000000000000000000000000000000000000000000000000000815260040160405180910390fd5b612cf47f6137df791f21cbac86da1fe17a4870cac7dfa3b93e50e7576472210a376a030560001b61307b565b612d207fb6f7f1c1dc0d16a1d48cd3cf88424e2b34517c9d6f86d655235d4f06904dd2df60001b61307b565b612d4c7fe6fba47961a41e69bf7393ae56b07a08e10ec005c0a7a4935fffc6a92b5acb2660001b61307b565b612d787f08b9b0047821a915661d91199daceb3b6e0bdaba48a7ea905aa83677e997b18060001b61307b565b612da47f2d8271ed6bef1300e2b614e3088ca653e82632aff77cca7ea4f1f1e62841066460001b61307b565b60008911612e3657612dd87fa2775eaf6a7dfac8ba7c053bbbc973005ef151ca2653441f87804fed961b3ca660001b61307b565b612e047f75c4524f3dbe2489a48930880214a548a09b14a8c1d73247f98139fefe8e4c1760001b61307b565b6040517fe1abbfc500000000000000000000000000000000000000000000000000000000815260040160405180910390fd5b612e627fa1576c4f8eae2c515d572a2ae6bf6c7f279e8ef799d570f0669fe3680ae9a17860001b61307b565b612e8e7ff137bd92564b700c79358eb5d1ac8466bd02f32fdc97dbd9c12af365cd38953760001b61307b565b612eba7f807a5dc08e96e2fa26275035b23052d54af17a73872924ac6144f2d3469aa1e560001b61307b565b88600360008d73ffffffffffffffffffffffffffffffffffffffff1673ffffffffffffffffffffffffffffffffffffffff16815260200190815260200160002060008c815260200190815260200160002060000181905550612f3e7f1519e18f4c4a72bf800151a1fff677c903e30116189f7f9e2c280b4d0e7ddeb060001b61307b565b612f6a7f7d6a00233bb4a59125c2c234c4efaba49fba650de9cb7b399a7d79a5aff6030860001b61307b565b898b73ffffffffffffffffffffffffffffffffffffffff163373ffffffffffffffffffffffffffffffffffffffff167fd547e933094f12a9159076970143ebe73234e64480317844b0dcb36117116de48c604051612fc8919061333d565b60405180910390a450505050506001600081905550505050505050565b6000612fef61307e565b61301b7f1839c15855829e45053d3d4030655c132c1adc96fcac28db2bd5b36c7681157060001b61307b565b6130477f41f88305832993305519df2ce3cc0c8d5708f58da1af9391e20452c2f424406360001b61307b565b6130737f531e13d74b5025d9ab5ef9cfd70cc1b3b1e055db599568477ed7b4c04851d7e360001b61307b565b600254905090565b50565b61308661325c565b73ffffffffffffffffffffffffffffffffffffffff166130a4611237565b73ffffffffffffffffffffffffffffffffffffffff16146130fa576040517f08c379a00000000000000000000000000000000000000000000000000000000081526004016130f190613848565b60405180910390fd5b565b6000600160009054906101000a900473ffffffffffffffffffffffffffffffffffffffff16905081600160006101000a81548173ffffffffffffffffffffffffffffffffffffffff021916908373ffffffffffffffffffffffffffffffffffffffff1602179055508173ffffffffffffffffffffffffffffffffffffffff168173ffffffffffffffffffffffffffffffffffffffff167f8be0079c531659141344cd1fd0a4f28419497f9722a3daafe3b4186f6b6457e060405160405180910390a35050565b60006131f07f0d0b21c907eaada78095eef1a55539a5e7af5bc902e015ad6dade51021dc162960001b61307b565b61321c7f9fccb38f8ea199376d4563dd04fb73d52c6b12d90f79df572598f41715739b4460001b61307b565b6132487f39d5b055eb5e5617708ea4a0d13101533e6434177450d2a7a1bb84dfe823e76c60001b61307b565b6064826132559190613897565b9050919050565b600033905090565b604051806040016040528060008152602001600073ffffffffffffffffffffffffffffffffffffffff1681525090565b600080fd5b600073ffffffffffffffffffffffffffffffffffffffff82169050919050565b60006132c482613299565b9050919050565b6132d4816132b9565b81146132df57600080fd5b50565b6000813590506132f1816132cb565b92915050565b60006020828403121561330d5761330c613294565b5b600061331b848285016132e2565b91505092915050565b6000819050919050565b61333781613324565b82525050565b6000602082019050613352600083018461332e565b92915050565b61336181613324565b811461336c57600080fd5b50565b60008135905061337e81613358565b92915050565b6000806040838503121561339b5761339a613294565b5b60006133a9858286016132e2565b92505060206133ba8582860161336f565b9150509250929050565b6133cd81613324565b82525050565b6133dc816132b9565b82525050565b6040820160008201516133f860008501826133c4565b50602082015161340b60208501826133d3565b50505050565b600060408201905061342660008301846133e2565b92915050565b60008060006060848603121561344557613444613294565b5b6000613453868287016132e2565b93505060206134648682870161336f565b92505060406134758682870161336f565b9150509250925092565b613488816132b9565b82525050565b60006020820190506134a3600083018461347f565b92915050565b600081905092915050565b50565b60006134c46000836134a9565b91506134cf826134b4565b600082019050919050565b60006134e5826134b7565b9150819050919050565b600082825260208201905092915050565b7f5472616e73666572206661696c65640000000000000000000000000000000000600082015250565b6000613536600f836134ef565b915061354182613500565b602082019050919050565b6000602082019050818103600083015261356581613529565b9050919050565b6000604082019050613581600083018561347f565b61358e602083018461332e565b9392505050565b6000815190506135a4816132cb565b92915050565b6000602082840312156135c0576135bf613294565b5b60006135ce84828501613595565b91505092915050565b7f5265656e7472616e637947756172643a207265656e7472616e742063616c6c00600082015250565b600061360d601f836134ef565b9150613618826135d7565b602082019050919050565b6000602082019050818103600083015261363c81613600565b9050919050565b6000606082019050613658600083018661347f565b613665602083018561332e565b613672604083018461332e565b949350505050565b7f4e487b7100000000000000000000000000000000000000000000000000000000600052601160045260246000fd5b60006136b482613324565b91506136bf83613324565b9250827fffffffffffffffffffffffffffffffffffffffffffffffffffffffffffffffff038211156136f4576136f361367a565b5b828201905092915050565b600061370a82613324565b915061371583613324565b9250828210156137285761372761367a565b5b828203905092915050565b6000606082019050613748600083018661347f565b613755602083018561347f565b613762604083018461332e565b949350505050565b7f4f776e61626c653a206e6577206f776e657220697320746865207a65726f206160008201527f6464726573730000000000000000000000000000000000000000000000000000602082015250565b60006137c66026836134ef565b91506137d18261376a565b604082019050919050565b600060208201905081810360008301526137f5816137b9565b9050919050565b7f4f776e61626c653a2063616c6c6572206973206e6f7420746865206f776e6572600082015250565b60006138326020836134ef565b915061383d826137fc565b602082019050919050565b6000602082019050818103600083015261386181613825565b9050919050565b7f4e487b7100000000000000000000000000000000000000000000000000000000600052601260045260246000fd5b60006138a282613324565b91506138ad83613324565b9250826138bd576138bc613868565b5b82820490509291505056fea2646970667358221220e107af99fc4d51b33617b41f1cc4d30d6002c62dd49bc77d0a99dfe4d12cfebb64736f6c63430008080033",
  "linkReferences": {},
  "deployedLinkReferences": {}
}